:020000040800F2
:10000000580700208D160008DD030008DF030008F4
:10001000E3030008E7030008EB030008000000000A
:10002000000000000000000000000000EF030008D6
:10003000F103000800000000F3030008F5030008C6
:10004000A7160008A7160008A7160008A71600089C
:10005000A7160008A7160008A7160008A71600088C
:10006000A7160008A7160008A7160008A71600087C
:10007000A7160008A7160008A7160008A71600086C
:10008000A7160008A7160008A7160008A71600085C
:10009000A7160008A7160008A7160008A71600084C
:1000A000A7160008A7160008A7160008A71600083C
:1000B000A7160008A7160008A7160008A71600082C
:1000C000A7160008A7160008A7160008A71600081C
:1000D000A716000801160008A7160008A7160008B2
:1000E000A7160008A7160008A7160008A7160008FC
:1000F000A7160008A7160008A7160008A7160008EC
:10010000A7160008A7160008A7160008A7160008DB
:10011000A7160008A7160008A7160008A7160008CB
:10012000A7160008A7160008A7160008A7160008BB
:10013000A7160008A7160008A7160008A7160008AB
:10014000A7160008A7160008A7160008A71600089B
:10015000A7160008A7160008A7160008A71600088B
:10016000A7160008A7160008A7160008A71600087B
:10017000A7160008A7160008A7160008A71600086B
:10018000A7160008A716000800F002F800F03CF8D7
:100190000AA090E8000C82448344AAF10107DA45E2
:1001A00001D100F031F8AFF2090EBAE80F0013F0F8
:1001B000010F18BFFB1A43F001031847686E0000D7
:1001C000886E0000103A24BF78C878C1FAD8520768
:1001D00024BF30C830C144BF04680C6070470000C1
:1001E0000023002400250026103A28BF78C1FBD840
:1001F000520728BF30C148BF0B6070471FB502F0DF
:1002000038FC1FBD10B510BD02F077F91146FFF79D
:10021000F5FF00F009F802F095F903B4FFF7F2FFDB
:1002200003BC01F08DF900002DED068B84B09FED2D
:100230005A0AB0EE408AA82001F000F900F0E4F973
:1002400000F0B9FA4FF6FF704FF48C73F0220021E2
:100250000090084600F080FB00205049086099E0BB
:10026000002020214FF6FF724FF47843CDE90021A2
:1002700002904BA2014600F0E9FE002010214FF64B
:10028000FF724FF47843CDE90021029047A2282164
:1002900000F0C6FF10204FF6FF714FF478420323A1
:1002A000CDE900210290F0222821302000F0E4FF67
:1002B000002010214FF6FF724FF47843CDE9002162
:1002C00002903CA22821502000F0AAFF10204FF6F7
:1002D000FF714FF478420323CDE9002102904FF4DF
:1002E0008C722821802000F0C7FF002010214FF6DB
:1002F000FF724FF47843CDE9002102902DA228210E
:10030000502000F08DFF002010214FF6FF724FF4B7
:100310007843CDE90021029028A2462100F080FF19
:1003200010204FF6FF714FF478430422B0EE480AD4
:10033000CDE900104621802000F0E9FF18EE100AF8
:1003400002F026FB41EC1A0B9FED210B53EC102B16
:1003500002F038F941EC190B02F002F908EE100A2C
:10036000002515E000240FE01B4805EB85027823EB
:1003700003EBC20104EB84020090D00028231A464C
:1003800001F029F8601CC4B2062CEDDB681CC5B274
:10039000032DE7DB64E7000000000000A482424276
:1003A000D6D0BEB0D4B0B5E7D7D300004C43445F3D
:1003B000573A00004C43445F483A0000496E63726C
:1003C00065617365696E67204E756E3A00000000C6
:1003D000295C8FC2F528BC3F862A0008704700BF01
:1003E000FEE700BFFEE700BFFEE700BFFEE7704785
:1003F00070477047704700000CB5002001900090D6
:100400007648006840F480307449086000BF734843
:10041000006800F4003000900198401C01900098A2
:1004200018B90198B0F5A04FF1D16C48006800F4FC
:10043000003010B10120009001E0002000900098F1
:10044000012846D165484030006840F0805063493B
:10045000403108606248006840F4404060490860EC
:100460005E48083000685D49083108600846006849
:1004700040F4004008600846006840F4A05008605E
:100480005848091F0860081F006840F08070091F65
:10049000086000BF5148006800F000700028F9D0E3
:1004A00040F20570504908604C480830006820F060
:1004B00003004A49083108600846006840F002001D
:1004C000086000BF45480830006800F00C000828AC
:1004D000F8D10CBD10B54548006840F470004349A0
:1004E00008603E48006840F001003C490860002078
:1004F0003A4908310860394800683D4908403749A1
:1005000008603C48091D0860081F006820F480202E
:10051000091F0860002031490C310860FFF76CFFAB
:100520004FF0006031498039086010BD70B500207F
:100530000022022300240221284D08352D6805F0F1
:100540000C0020B1042806D0082834D107E02A4D39
:100550002A4E356033E02A4D284E35602FE01F4D7E
:100560002D1D2D68C5F380541C4D2D1D2D6805F0E3
:100570003F0154B1224DB5FBF1F5184E361D3668DA
:10058000C6F3881605FB06F209E01B4DB5FBF1F535
:10059000124E361D3668C6F3881605FB06F20F4D5F
:1005A0002D1D2D68C5F301456D1C6B00B2FBF3F5E5
:1005B000124E356003E0104D104E356000BF00BF95
:1005C000064D08352D68C5F303150E4E705D0B4DB5
:1005D0002D68C540094E356070BD000000380240EE
:1005E0000070004008544007003C024088ED00E0E5
:1005F000FFFFF6FE103000240024F400000000206D
:1006000000127A00040000201CB50121202001F016
:10061000F1FB4FF4C060009001208DF80400002031
:100620008DF8060003208DF8050001208DF80700E5
:100630006946044801F040F94FF4C061014801F0F7
:10064000B7F91CBD001402401CB501215F2001F068
:10065000D1FB4FF48050009001208DF80400002061
:100660008DF8060003208DF8050001208DF80700A5
:100670006946B64801F020F94FF48051B34801F0C3
:1006800097F948F23200009001208DF80400002014
:100690008DF8060003208DF8050001208DF8070075
:1006A0006946AB4801F008F948F23201A84801F068
:1006B0007FF94FF4A060009001208DF80400002025
:1006C0008DF8060003208DF8050001208DF8070045
:1006D0006946A04801F0F0F84FF4A0619D4801F090
:1006E00067F91CBD70B504460221994801F062F912
:1006F000002519E04FF48051944801F05BF904F0B3
:10070000800020B12021924801F052F903E020211D
:100710008F4801F04FF94FF480518C4801F048F9AF
:100720006006040E681CC5B2082DE3DB0221884870
:1007300001F03EF970BD10B504462046FFF7D2FF28
:1007400010BD10B504462012FFF7CCFFE0B2FFF752
:10075000C9FF10BD10B504464FF400417C4801F0BC
:1007600029F92046FFF7BEFF4FF40041784801F019
:100770001FF910BD2DE9F04107460C4615461E46EF
:100780002A20FFF7E7FF3846FFF7DBFF2846FFF791
:10079000D8FF2B20FFF7DEFF04F1140188B2FFF72A
:1007A000D0FF06F1140188B2FFF7CBFF2C20FFF732
:1007B000D1FFBDE8F08110B5FFF746FF1021644876
:1007C00001F0F8F8642000F09BFE1021604801F071
:1007D000EFF8642000F094FE4FF480715D4801F062
:1007E000E7F8642000F08CFE1120FFF7B3FF7820BB
:1007F00000F086FE3620FFF7ADFF0020FFF79BFFDD
:100800003A20FFF7A7FF0520FFF795FFB220FFF77B
:10081000A1FF0C20FFF78FFF0C20FFF78CFF0020BB
:10082000FFF789FF3320FFF786FF3320FFF783FFB1
:10083000B720FFF78FFF3520FFF77DFFBB20FFF7C5
:1008400089FF3220FFF777FFC220FFF783FF0120E7
:10085000FFF771FFC320FFF77DFF1520FFF76BFF48
:10086000C420FFF777FF2020FFF765FFC620FFF7C2
:1008700071FF0F20FFF75FFFD020FFF76BFFA42071
:10088000FFF759FFA120FFF756FFE020FFF762FFB7
:10089000D020FFF750FF0820FFF74DFF0E20FFF795
:1008A0004AFF0920FFF747FF0920FFF744FF052013
:1008B000FFF741FF3120FFF73EFF3320FFF73BFFFB
:1008C0004820FFF738FF1720FFF735FF1420FFF708
:1008D00032FF1520FFF72FFF3120FFF72CFF3420C8
:1008E000FFF729FFE120FFF735FFD020FFF723FFB7
:1008F0000820FFF720FF0E20FFF71DFF0920FFF75C
:100900001AFF0920FFF717FF1520FFF714FF31200A
:10091000FFF711FF3320FFF70EFF4820FFF70BFF13
:100920001720FFF708FF1420FFF705FF1520FFF73A
:1009300002FF3120FFF7FFFE3420FFF7FCFE2120ED
:10094000FFF708FF2920FFF705FF10BD0018024040
:10095000000C0240001002402DE9F04706460F4609
:1009600014461D46DDF820A0681E83B2601E82B2C8
:1009700039463046FFF7FEFEB8460EE0B14606E0C7
:100980005046FFF7DEFE09F101001FFA80F9A1458C
:10099000F6DB08F101001FFA80F8A845EEDBBDE8A0
:1009A000F08770B504460D4616462B46224629466A
:1009B0002046FFF7DFFE3046FFF7C3FE70BD2DE98E
:1009C000FF4F85B081468A460020039083460798F2
:1009D000A0EB09050898A0EB0A06CDF80890CDF821
:1009E00004A0002D01DD012705E00DB9002702E07C
:1009F0004FF0FF376D42002E02DD4FF0010806E098
:100A000016B94FF0000802E04FF0FF387642B542C9
:100A100001DD2C4600E03446002004901EE0019ADF
:100A200091B2029A90B2129AFFF7BBFF0398284442
:100A30000390B3440398A04205DD0398001B039084
:100A4000029838440290A34504DDABEB040B0198F7
:100A5000404401900498401C80B20490611C0498AA
:100A60008842DCDB09B0BDE8F08F2DE9F84305468C
:100A70000E4617469846089C33463A463146284665
:100A80000094FFF79CFF43462A46314628460094CF
:100A9000FFF795FF43463A46414628460094FFF744
:100AA0008EFF43463A46314638460094FFF787FFAB
:100AB000BDE8F8832DE9F04706460F469046994673
:100AC0000025444641E07A1B91B2321B90B24A465F
:100AD000FFF767FF7A1B91B2321990B24A46FFF7CF
:100AE00060FF3A1991B2721B90B24A46FFF759FF64
:100AF0003A1B91B2721B90B24A46FFF752FF7A1925
:100B000091B2321990B24A46FFF74BFF3A1B91B2AD
:100B1000721990B24A46FFF744FF3A1991B272191E
:100B200090B24A46FFF73DFF7A1991B2321B90B25C
:100B30004A46FFF736FF6D1C05FB05F004FB040178
:100B400008FB08F0814200DD641EA542BBDDBDE864
:100B5000F0872DE9FF5F0646894692469B460F9C2B
:100B60000020039000962046E21704EB5272D21048
:100B70002146E31704EB5373DB10A4EBC3030BB163
:100B8000012300E000231A44624392B2019205203F
:100B90000290002571E005EB8510FA4911F810006C
:100BA0009AF80010884265D105EB8510F54901EBF4
:100BB000400040789AF8011088425BD109EB0400AC
:100BC000401E83B23019401E82B249463046FFF7BC
:100BD000D1FD00274BE04FF0000842E01098F8B933
:100BE00005EB8510E74901EB4000801CC05D012149
:100BF00001FA08F1084018B15846FFF7A2FD02E0DB
:100C00000E98FFF79EFD0398401CC0B20390039816
:100C100090FBF4F104FB1100F8B90020039023E0ED
:100C200005EB8510D74901EB4000801CC05D012118
:100C300001FA08F1084020B15A4649463046FFF70C
:100C4000B0FE701C86B20098301AA04205D1009EFA
:100C500009F101001FFA80F906E008F1010000F037
:100C6000FF08B8F1080FB9DB00BF781CC7B20198C4
:100C70008742B0DB00BF681C85B2029885428ADBE0
:100C8000BDE8FF9F2DE9FF5F0646894692469B46D9
:100C90000F9C0020039000962046E21704EB52724E
:100CA000D2102146E31704EB5373DB10A4EBC3030C
:100CB0000BB1012300E000231A44624392B2019277
:100CC00005200290002579E005EB850000EB45103A
:100CD000AD4911F810009AF8001088426BD105EB6D
:100CE000850000EB4510A84901EB400040789AF8D8
:100CF000011088425FD109EB0400401E83B2301915
:100D0000401E82B249463046FFF734FD00274FE0CF
:100D10004FF0000846E0109808BB05EB850000EB9B
:100D20004510994901EB4000801CC05D012101FA8A
:100D300008F1084018B15846FFF703FD02E00E988D
:100D4000FFF7FFFC0398401CC0B20390039890FB90
:100D5000F4F104FB110008BB0020039025E005EB33
:100D6000850000EB4510884901EB4000801CC05D08
:100D7000012101FA08F1084020B15A46494630469F
:100D8000FFF70FFE701C86B20098301AA04205D102
:100D9000009E09F101001FFA80F906E008F1010048
:100DA00000F0FF08B8F1080FB5DB00BF781CC7B230
:100DB00001988742ACDB00BF681C85B2029885426F
:100DC00082DBBDE8FF9F2DE9FF5F0646894692461C
:100DD0009B460F9C0020039000962046E21704EBF0
:100DE0005272D2102146E31704EB5373DB10A4EBCD
:100DF000C3030BB1012300E000231A44624392B203
:100E0000019205200290002571E005EB05105F4975
:100E100011F810009AF80010884265D105EB051012
:100E20005A4901EB400040789AF8011088425BD1A2
:100E300009EB0400401E83B23019401E82B24946BD
:100E40003046FFF797FC00274BE04FF0000842E0E8
:100E50001098F8B905EB05104C4901EB4000801CD7
:100E6000C05D012101FA08F1084018B15846FFF7AA
:100E700068FC02E00E98FFF764FC0398401CC0B2C7
:100E80000390039890FBF4F104FB1100F8B90020E3
:100E9000039023E005EB05103C4901EB4000801C6A
:100EA000C05D012101FA08F1084020B15A464946C7
:100EB0003046FFF776FD701C86B20098301AA042CB
:100EC00005D1009E09F101001FFA80F906E008F142
:100ED000010000F0FF08B8F1080FB9DB00BF781C73
:100EE000C7B201988742B0DB00BF681C85B2029888
:100EF00085428ADBBDE8FF9F2DE9FF5F06468946F4
:100F000092469B460F9C0020039000962046E217D5
:100F100004EB5272D2102146E31704EB5373DB103B
:100F2000A4EBC3030BB1012300E000231A44624386
:100F300092B2019205200290002581E005EB850028
:100F400000EBC500124911F810009AF80010884211
:100F500073D105EB850000EBC5000D4901EB4000A6
:100F600040789AF80110884267D109EB0400401ECE
:100F700083B23019401E82B249463046FFF7FAFB71
:100F8000002757E0986D0008266C00087C6B00086D
:100F9000FA6A00084FF0000846E0109808BB05EB1D
:100FA000850000EBC500FE4901EB4000801CC05DE0
:100FB000012101FA08F1084018B15846FFF7C1FBBA
:100FC00002E00E98FFF7BDFB0398401CC0B20390EF
:100FD000039890FBF4F104FB110008BB0020039080
:100FE00025E005EB850000EBC500ED4901EB400075
:100FF000801CC05D012101FA08F1084020B15A4669
:1010000049463046FFF7CDFC701C86B20098301A76
:10101000A04205D1009E09F101001FFA80F906E007
:1010200008F1010000F0FF08B8F1080FB5DB00BFC0
:10103000781CC7B201988742ACDB00BF681C85B240
:1010400002988542FFF67AAFBDE8FF9F2DE9FE4F7B
:101050008046894617469A46DDE90D460C9D36E0E6
:101060000C2C09D153463A4649464046CDE9014643
:101070000095FFF741FF25E0102C09D153463A4671
:1010800049464046CDE901460095FFF79CFE19E030
:10109000182C09D153463A4649464046CDE9014607
:1010A0000095FFF7EFFD0DE0202C09D153463A469D
:1010B00049464046CDE901460095FFF74AFD01E06B
:1010C000BDE8FE8FBF1C08EB04001FFA80F83878DB
:1010D0000028C5D100BFF3E72DE9FF5F80468A46AF
:1010E00017469B460F9D00200290CDF800802846B1
:1010F00005EBD071C1F347042046E21704EB5272AE
:10110000D2102146E31704EB5373DB10A4EBC303A7
:101110000BB1012300E000231A446A4392B201920A
:10112000A7F12000C7B20AEB0500401E83B208EB0E
:101130000400401E82B251464046FFF71BFB0026CA
:1011400069E00C2D07D107EB4700964901EB8000C1
:10115000805D03901BE0102D05D1934800EB071034
:10116000805D039013E0182D07D107EB47008F49EE
:1011700001EB0010805D039009E0202D05D18C4823
:1011800000EB8710805D039001E0BDE8FF9F4FF00A
:1011900000093AE01098C8B9012000FA09F0039953
:1011A000084018B15846FFF7CCFA02E00E98FFF756
:1011B000C8FA0298401CC0B20290029890FBF4F169
:1011C00004FB1100E8B90020029021E0012000FAA0
:1011D00009F00399084020B15A4651464046FFF7AE
:1011E000E0FB08F101001FFA80F80098A8EB00006E
:1011F000A04206D1DDF800800AF101001FFA80FA52
:1012000006E009F1010000F0FF09B9F1080FC1DBA8
:1012100000BF701C86B20198864292DB00BFB4E723
:101220002DE9FE4F06460F4614469846DDE90D5A55
:10123000DDF8309010E0CDE9015ACDF80090227829
:10124000434639463046FFF747FF284605EBD07145
:1012500006EB61018EB2641C20780028EBD1BDE85A
:10126000FE8F10B50246012000E050430B1EA1F195
:101270000104E1B2F9D110BD2DE9FF4F85B0074659
:1012800091461D46DDE913A600200490304606EB8A
:10129000D071C1F3470B002434E0281B401EC1B2BB
:1012A0000A20FFF7DEFFB9FBF0F00A21B0FBF1F2F4
:1012B00001FB12080498A0B9681EA04211DDB8F124
:1012C000000F0CD1002004FB0B71CDE900A60290A9
:1012D00088B22022129B0699FFF7FEFE10E0012043
:1012E0000490002008F13001CAB204FB0B71CDE973
:1012F00000A6029088B2129B0699FFF7EDFE00BF90
:10130000601CC4B2AC42C8DB09B0BDE8F08F2DE967
:10131000FF4F2DED020B2DED028B83B00746B0EE93
:10132000408A1446DDE91486304606EBD071C1F3DD
:10133000470A9FED200A28EE000ABCEEC00A10EE14
:10134000100A1FFA80FB00253DE0601B401EC1B261
:101350000A20FFF786FFBBFBF0F00A21B0FBF1F299
:1013600001FB1209A01EA84210D10020A11E01FB02
:101370000A71CDE90086029088B22E220A9B089954
:10138000FFF7AAFE681CC5B2601CC4B2002009F1B8
:101390003001CAB205FB0A71CDE9008602900BE06C
:1013A000FA6A0008063700087A3B00086A4100081C
:1013B0003A5300080000C84288B20A9B0899FFF718
:1013C0008BFE681CC5B2A542BFDB03B0BDEC028B2F
:1013D00006B0BDE8F08F2DE9F05F07468846154658
:1013E0001E46DDF82890002408EB0600401E83B25C
:1013F0007819401E82B241463846FFF7BBF9A24633
:1014000018E04FF0000B0FE019F81400FFF793F904
:10141000012101EB440119F80100FFF78CF9641C6C
:101420000BF101001FFA80FBB345EDDB0AF101006F
:101430001FFA80FAAA45E4DBBDE8F09F10B5044628
:101440006FF0040000F094F9E11704EB5171C1F35F
:10145000C701394A11701046007800EB4001C1EB1A
:10146000C0104FF6FF7101EAC0003449088010BD7A
:101470000146314A12784A434FF0E0235A61002274
:101480009A611A46126942F001021A6100BF4FF0D8
:10149000E022106900F001021AB100F48032002A43
:1014A000F5D04FF0E022126922F001024FF0E02364
:1014B0001A6100229A6170470146204A12884A4305
:1014C0004FF0E0235A6100229A611A46126942F0F5
:1014D00001021A6100BF4FF0E022106900F0010222
:1014E0001AB100F48032002AF5D04FF0E0221269E0
:1014F00022F001024FF0E0231A6100229A61704746
:1015000070B504464FF4077094FBF0F0C6B24FF488
:10151000077094FBF0F100FB114085B205E04FF439
:101520000770FFF7C9FF701EC6B2002EF7D115B1C4
:101530002846FFF7C1FF70BD1400002016000020F0
:10154000014600BF704700BF4C4A128802F04002BB
:10155000002AF9D0C2B2494B9A80704710B588B0C2
:1015600004460121084600F045FC0121102000F04E
:101570009BFC07220921424800F029FA07220A2190
:101580003F4800F024FA4FF4C060069002208DF826
:101590001C008DF81D0000208DF81E0001208DF824
:1015A0001F0006A9364800F087F902940020ADF824
:1015B0000C00ADF80E00ADF81000ADF814000C20D2
:1015C000ADF8120002A92D4800F0CFFD01212B48F3
:1015D00000F053FE012240F22551284800F003FF9D
:1015E00025208DF8040003208DF805008DF80600F5
:1015F00001208DF8070001A800F06DF808B010BDBB
:1016000010B540F225511D4800F028FF10B31B48CB
:1016100000F062FEC4B21B48008800F40040C8B964
:101620001848008800F4804060B10A2C03D00020E4
:101630001449088020E01348008840F40040114914
:10164000088019E00D2C06D10E48008840F4804037
:101650000C49088010E00B480088C0F30D000A49CF
:101660000C5408480088401C064908800846008839
:10167000C72801DD0020088010BD000000100140D7
:10168000000002401C000020300000200948804774
:1016900009480047FEE7FEE7FEE7FEE7FEE7FEE754
:1016A000FEE7FEE7FEE7FEE704480549054A064B6C
:1016B00070470000D5040008890100085801002087
:1016C00058070020580300205803002032490143E6
:1016D000324A1160704770B5002100230F22C47890
:1016E0001CB32E4C246804F4E064C4F5E064C4F335
:1016F0000721C1F10404E3B20A4144789C40E1B2FD
:101700008478144021430C07210E254C057861553F
:10171000047804F01F050124AC4005786D11AD007C
:1017200005F1E025C5F8004109E0047804F01F0543
:101730000124AC401B4D0678761145F8264070BD5B
:10174000194A0A400243154B1B1F1A60704739B1F2
:10175000124A121D12680243104B1B1D1A6006E04C
:101760000E4A121D126882430C4B1B1D1A607047F3
:10177000042808D14FF0E021096941F004014FF03D
:10178000E022116107E04FF0E021096921F0040136
:101790004FF0E022116170470000FA050CED00E007
:1017A00000E400E080E100E080FFFF1F10B5044688
:1017B0009848844208D10121084600F086FB0021A8
:1017C000012000F082FB76E09348844208D1012199
:1017D000022000F07AFB0021022000F076FB6AE094
:1017E0008E48844208D10121042000F06EFB0021C4
:1017F000042000F06AFB5EE08948844208D10121A0
:10180000082000F062FB0021082000F05EFB52E09F
:101810008448844208D10121102000F056FB0021A9
:10182000102000F052FB46E07F48844208D101219D
:10183000202000F04AFB0021202000F046FB3AE087
:101840007A48844208D10121402000F03EFB00216B
:10185000402000F03AFB2EE07548844208D1012177
:10186000802000F032FB0021802000F02EFB22E0DF
:101870007048844208D10121801500F026FB002128
:10188000A01500F022FB16E06B48844208D101212C
:10189000401500F01AFB0021601500F016FB0AE06D
:1018A0006648844207D10121001500F00EFB00219B
:1018B000201500F00AFB10BDF0B50A4600210023F8
:1018C000002400BF3DE0012505FA01F3156805EA93
:1018D00003049C4234D105684F000326BE40B54343
:1018E000056015794E00B5400668354305601579E9
:1018F000012D02D01579022D16D185684F000326DF
:10190000BE40B543856055794E00B5408668354385
:101910008560456801268E40B543456045689679E7
:101920008E40B6B235434560C5684F000326BE40C1
:10193000B543C560D5794E00B540C6683543C5602E
:10194000491C1029BFD3F0BD4FF6FF710160002183
:10195000017141718171C171704708B54FF48032D6
:101960000092009A0A430092009AC261C161009AF3
:10197000C261C2690092C269009208BD024600209D
:1019800013690B400BB1012000E0002070470146B5
:10199000086980B270470246002053690B400BB1C2
:1019A000012000E0002070470146486980B270477E
:1019B00001837047418370470AB1018300E041838E
:1019C00070474161704742694A4042617047F0B5D3
:1019D000002300244D07ED0E02FA05F3CE1000F1AE
:1019E000200555F826504E07F70E0F26BE40B5438A
:1019F000CF1000F1200646F82750CE1000F1200548
:101A000055F8265045EA0304CE1000F1200545F8AC
:101A10002640F0BD000002400004024000080240E1
:101A2000000C024000100240001402400018024066
:101A3000001C024000200240002402400028024016
:101A4000F948006840F00100F74908600020F649B5
:101A500008310860F4480068F4490840F249086019
:101A6000F348091D0860F348EF4984310860F048E5
:101A70001038091D0860EC48006820F48020EA490D
:101A800008600020E8490C310860E7498C310860A3
:101A900070470021E44A921C11701146087070478B
:101AA00010B501460022002300204A11012A02D16C
:101AB000DD4C236808E0022A03D1DB4C7034236834
:101AC00002E0D94C7434236801F01F0201249440D1
:101AD0001C400CB1012000E0002010BD38B50020F2
:101AE00000900024002500BF3120FFF7D9FF0546F4
:101AF0000098401C00900098B0F5A04F01D0002D38
:101B0000F2D03120FFF7CCFF08B1012400E000241F
:101B1000204638BD01460020C34A106820F0F80076
:101B200040EAC10010607047C34908607047002157
:101B3000BD4A703211701170012802D004280AD1F8
:101B400004E00121B84A7032117005E00521B64A5F
:101B50007032117000E000BF00BF7047B7490860E5
:101B6000704770B5049C41EA82150126C6EB530606
:101B700045EA0645054345EA0465AB4E361D35602A
:101B800070BDAD4908667047820142EA0172A64BFA
:101B900084331A607047A8498866704710B583017E
:101BA00043EA016343EA02739F4C8834236010BD0B
:101BB000A14908677047A049C864704702460020E1
:101BC000994B0833186820F0EC6042EA010318438F
:101BD000954B08331860704702460020924B08333B
:101BE000186820F0784042EA010318438E4B08330E
:101BF00018607047014600208B4A0832106820F0B8
:101C0000030008431060704787480830006800F000
:101C10000C00704701460020834A0832106820F00B
:101C2000F000084310607047014600207E4A0832E9
:101C3000106820F4E050084310607047014600200F
:101C4000794A0832106820F4604040EAC100106010
:101C50007047F0B50021002200240225002602234F
:101C6000714F08373F6807F00C0121B1042905D0F6
:101C7000082937D105E0724F076036E0714F0760E1
:101C800033E0694F3F1D3F68C7F38056664F3F1DE5
:101C90003F6807F03F036EB16A4FB7FBF3F7DFF819
:101CA00088C10CF1040CDCF800C0CCF3881C07FBE5
:101CB0000CF40CE0624FB7FBF3F7DFF86CC10CF1EA
:101CC000040CDCF800C0CCF3881C07FB0CF4564F66
:101CD0003F1D3F68C7F301477F1C7D00B4FBF5F74C
:101CE000076002E0564F076000BF00BF4E4F083745
:101CF0003F6807F0F0010909534F7A5C0768D74045
:101D00004760494F08373F6807F4E051890A4E4F52
:101D10007A5C4768D7408760434F08373F6807F4CD
:101D20006041490B484F7A5C4768D740C760F0BDB7
:101D3000002100F44072B2F5407F0AD13A4A0832DD
:101D4000116821F4F811414A02401143364A083221
:101D50001160354A70321268C0F30B031A43324BDC
:101D600070331A6070473549443908607047334909
:101D700040390860704736490860704701460020C6
:101D8000294A8C32106820F01F004A1E1043264A50
:101D90008C321060704701460020234A8C32106854
:101DA00020F4F8504A1E40EA02201F4A8C3210608C
:101DB0007047014600201C4A8C32106820F4401005
:101DC00008431060704701460020174A8C321068A3
:101DD00020F4400008431060704701460020124A7A
:101DE0008C32106820F44030084310607047194965
:101DF0000860704739B10C4A3032126802430A4B0E
:101E000030331A6006E0084A303212688243064BCB
:101E100030331A607047F9B1034A34321268024312
:101E2000014B34331A601CE000380240FFFFF6EA31
:101E3000103000240030002000004742800E47424E
:101E40000024F40000127A001E000020FFFCFF0FA7
:101E50005C014742E01147428F4A126882438E4B31
:101E60001A60704739B18C4A121D126802438A4BBE
:101E70001B1D1A6006E0884A121D12688243864BB9
:101E80001B1D1A60704739B1834A0C321268024335
:101E9000814B0C331A6006E07F4A0C321268824391
:101EA0007D4B0C331A60704739B17B4A103212688F
:101EB0000243794B10331A6006E0774A10321268F9
:101EC0008243754B10331A60704739B1724A243A15
:101ED00012680243704B243B1A6006E06E4A243AB3
:101EE000126882436C4B243B1A60704739B16A4ACE
:101EF000203A12680243684B203B1A6006E0664AAB
:101F0000203A12688243644B203B1A60704739B113
:101F1000614A1C3A126802435F4B1C3B1A6006E0A0
:101F20005D4A1C3A126882435B4B1C3B1A60704747
:101F300039B1594A143A12680243574B143B1A609C
:101F400006E0554A143A12688243534B143B1A6018
:101F5000704739B1504A103A126802434E4B103B59
:101F60001A6006E04C4A103A126882434A4B103B12
:101F70001A60704739B1484A1C3212680243464B16
:101F80001C331A6006E0444A1C3212688243424BFA
:101F90001C331A60704739B13F4A2032126802433D
:101FA0003D4B20331A6006E03B4A203212688243E0
:101FB000394B20331A60704739B1374A24321268DE
:101FC0000243354B24331A6006E0334A2432126848
:101FD0008243314B24331A60704739B12E4A2C3278
:101FE000126802432C4B2C331A6006E02A4A2C322A
:101FF00012688243284B2C331A60704739B1264A45
:10200000303212680243244B30331A6006E0224A11
:10201000303212688243204B30331A6070470128F7
:1020200008D11D493C31096841F008011A4A3C3287
:10203000116007E018493C31096821F00801164A8F
:102040003C321160704739B1134A273A1278024383
:10205000114B273B1A7006E00F4A273A1278824349
:102060000D4B273B1A7070470B484030006840F01A
:102070008070094940310860704701460020064AD7
:10208000283A12680A400AB1012000E00020704797
:1020900001492639087070473438024010B50446AB
:1020A000FA48844208D101211020FFF752FF002195
:1020B0001020FFF74EFF57E0F548844209D1012177
:1020C0004804FFF735FF00214FF40030FFF730FFE1
:1020D0004AE0F048844209D101218804FFF728FF33
:1020E00000214FF48020FFF723FF3DE0EA488442BF
:1020F00009D10121C804FFF71BFF00214FF4002084
:10210000FFF716FF30E0E548844209D101210805B8
:10211000FFF70EFF00214FF48010FFF709FF23E0C7
:10212000DF48844208D101212020FFF712FF00215F
:102130002020FFF70EFF17E0DA48844209D1012181
:102140008807FFF7F5FE00214FF08040FFF7F0FE13
:102150000AE0D548844207D101214005FFF7E8FE97
:1021600000216005FFF7E4FE10BD2DE9FF4705469D
:102170000E460024A14600BFA046B08900B100BFB2
:102180002C8A24F44054F08804432C82AC8941F218
:102190000C608443B0883189084371890843044343
:1021A000AC81AC8A24F44074B0890443AC826846A4
:1021B000FFF74FFDB548854202D0B948854202D1AC
:1021C000DDF80C9001E0DDF80890A88900F40040EB
:1021D00040B109EBC90000EB091031684900B0FBC0
:1021E000F1F707E009EBC90000EB0910316889003D
:1021F000B0FBF1F76420B7FBF0F004012009642183
:1022000001FB1078A88900F4004040B1322000EBB7
:10221000C800B0FBF1F000F00700044308E03220F2
:1022200000EB08106421B0FBF1F000F00F00044354
:102230002C81BDE8FF874FF4165101600021818099
:10224000C18001810C21418100218181704710B53D
:1022500002460020108A20F470600B884C882343CB
:102260008C882343CC8823431843108210BD00215F
:10227000018041808180C180704721B1828942F410
:102280000052828104E082894DF6FF731A408281F8
:102290007047028B02F47F420283028B0A4302835F
:1022A000704721B1828942F40042828103E0828931
:1022B000C2F30E028281704721B1828A42F4006229
:1022C000828204E0828A4FF2FF731A408282704752
:1022D000C1F308028280704701468888C0F3080075
:1022E0007047028A4FF6F0731A400282028A0A434C
:1022F0000282704721B1828942F00202828104E0A9
:1023000082894FF6FD731A408281704782894FF2AD
:10231000FF731A40828182890A4382817047028A50
:102320004FF6DF731A400282028A0A430282704724
:1023300021B1028A42F48042028204E0028A4BF612
:10234000FF731A4002827047818941F00101818147
:10235000704721B1828A42F00802828204E0828AB8
:102360004FF6F7731A4082827047028BD2B2028313
:10237000028B42EA01220283704721B1828A42F035
:102380002002828204E0828A4FF6DF731A40828242
:10239000704721B1828A42F01002828204E0828A70
:1023A0004FF6EF731A4082827047828A4FF6FB73B2
:1023B0001A408282828A0A438282704721B1828ACD
:1023C00042F00202828204E0828A4FF6FD731A40D4
:1023D000828270471AB1838A0B43838202E0838A28
:1023E0008B4383827047F0B5034600240026002506
:1023F000002040F66A17B94200D100BF1846C1F369
:10240000421401F01F06012707FA06F5012C01D13D
:102410000C3004E0022C01D1103000E014301AB16D
:1024200007682F43076002E00768AF430760F0BD0D
:1024300002460020B1F5007F00D100BF13880B4099
:102440000BB1012000E00020704701F40072B2F5EA
:10245000007F00D100BFCA430280704770B50246BA
:10246000002400230025002040F66A16B14200D166
:1024700000BFC1F3421501F01F03012606FA03F362
:10248000012D13D19689334017E000000010014060
:102490000044004000480040004C00400050004014
:1024A0000014014000780040007C0040022D02D161
:1024B000168A334001E0968A33400C12012606FA50
:1024C00004F41688344013B10CB1012000E0002060
:1024D00070BD10B50022002340F66A14A14200D15D
:1024E00000BF0A1201249440A3B2DC43048010BD53
:1024F00070477047704770477047754600F02CF87A
:10250000AE4605006946534620F00700854618B0E0
:1025100020B5FFF7C9F8BDE820404FF000064FF0A6
:1025200000074FF000084FF0000B21F00701AC4608
:10253000ACE8C009ACE8C009ACE8C009ACE8C00927
:102540008D46704710B50446AFF300802046BDE8C5
:102550001040FDF762BE000000487047F800002000
:1025600021F00042A2F16052B2F5801F01F0004359
:1025700028BFD2F17F6C0BD95FEA001C43EAC2028C
:1025800042EB507018BF704728BF20F00100704721
:10259000B2F5801FBCBF184670474FEA410C1CF5CE
:1025A000001F02D2084600F069BA70B500F0B2F818
:1025B00000000089FFF7F6BF4FF00040A0F5800053
:1025C0007047000010B591EA030F48BF83F0004345
:1025D00000F1FC80841A71EB030C05D2121943EB55
:1025E0000C03001B61EB0C01DFF824E14FEA1154EE
:1025F000A4EB135C1EEA430F18BF9EEA445F73D03E
:1026000023EA0E03DCF1200E21EA045143F4801387
:1026100032D322FA0CFE10EB0E0023FA0CFE41EB33
:102620000E01CCF1200E03FA0EFE10EB0E0051F15C
:102630000001B1F5801FCCF1200E32D201EB045124
:1026400012FA0EF2BDE8104058BF7047401C38BF68
:102650005FEA420218BF7047002814BF20F0010053
:1026600041F100014FEA410313F5001F38BF7047E5
:10267000A1F1C04100F09CB8012A43EB0302ACF188
:10268000200CDCF11F0E32BF4FF0000E23FA0CF3CA
:1026900010EB030041EB0451B4EB115FD0D0A1EB80
:1026A000045101F5801149085FEA300001EB045143
:1026B0000ED350F1000038BF12FA0EFE08D1BDE86B
:1026C0001040C9E7401C38BF5FEA4202CAD1C3E7E5
:1026D000BDE810404FEA410313F5001F38BF7047B3
:1026E000A1F1C04100F064B89EEA445F08D011EA4D
:1026F0005E0FBDE8104004BF01F0004100207047AC
:10270000BDE8104070B500F005F800BF64FBBE3EA8
:102710000000E0FF0EF1020E2EF0030E5EF8046BD7
:10272000364205D4012A43EB030515F5001F12D8E4
:10273000012841EB010C1CF5001F0CD80ED14FEA0B
:10274000D17C15F5001F0CEB4C0C0CF1020C08BFF2
:102750004CEBD37C04E04FF0080C01E04FEAD37C53
:102760000CEB4C0526FA05F606F00706B6F1040C4C
:1027700006D20EEB860CBDE870404CF0010C6047B1
:10278000DFE80CF0090B02024FF000414FF00000AF
:10279000A1F5002170BD19461046012851EB010436
:1027A00018BFD4F5001484BF002001F0004170BDB3
:1027B0000808A0F500114FEA3101704710B591EA01
:1027C000030F48BF83F000433FF504AF841A71EB59
:1027D000030C07D212198CF0004C43EB0C03001BC6
:1027E00061EB0C01DFF8A4E14FEA1154A4EB135C98
:1027F0001EEA430F18BF9EEA445F00F0B08023EA50
:102800006E03524221EA0451C3EB6E0338BF5B1ED4
:10281000DCF1200E25D322FA0CFE10EB0E0043FA59
:102820000CFE41EB0E01CCF1200E03FA0EFE10EB74
:102830000E0051F10001CCF1200E29D412FA0EF253
:1028400001EB0451BDE8104058BF7047401C1CBF4D
:10285000B2F1004F704700280CBF491C20F0010066
:10286000704712EB020E43EB030218BF4FF0010E4C
:102870004EEA4202ACF1200CDCF11E0E54D943FAB0
:102880000CFE10EB0E0051F1FF31CCF11E0ED5D530
:102890000EF1010E12FA0EFE404141EB010101EB77
:1028A000445C5FEA5C5C10D910EBDE7001EB045114
:1028B00038BFBEF1004FBDE8104018BF7047002878
:1028C0000CBF491C20F00100704730D24FEAD42CD5
:1028D00011F5001124F400641BD0B1FA81F20B3A17
:1028E000A41AA41ED2F12003914030FA03F3194335
:1028F000904001EBCC71002C01EB0451BDE810407D
:10290000A8BF704701F1C0414FF0000001F0004145
:102910007047B0FA80F310FA03F100D110BDE41A49
:10292000173C4805C90AE4E701EB045110BD491002
:1029300001EB0451BDE810404FEA300002E04FF0D7
:10294000000170474A0008BF0042F8D0B2F5001FEE
:1029500028BF704701F000414FF0000070479EEA29
:10296000445F07D011EA5E0FBDE8104004BF0021AC
:1029700000207047BDE8104070B5FFF7CBFE00BFE8
:1029800040DFF63E83F00041104670470000E0FF54
:1029900043004FEAD30C4FEA3C0C43401FBF4007B3
:1029A0000CF1605113F0FE4F70471CF0006F03D123
:1029B00000200CF0004170470CF0004343EA5070D7
:1029C00010B540EACC0000F00EF800BF0000009205
:1029D0004FEA0001FFF7ECBE4FF000414FF000005E
:1029E000A1F5002170470EF1020E2EF0030E5EF8E5
:1029F000044B244204D44FEA4102B2F17F4F11D874
:102A00004FEA4003B3F17F4F0CD80ED14FEAD07C90
:102A1000B2F17F4F0CEB4C0C0CF1020C08BF4CEBED
:102A2000D17C04E04FF0080C01E04FEAD17C0CEBC4
:102A30004C0324FA03F404F00704B4F1040C06D2A6
:102A40000EEB840CBDE810404CF0010C6047DFE851
:102A50000CF0070802024FF00040A0F5800010BD06
:102A60000846420018BFD2F1807288BF00F00040D3
:102A700010BD4FF04070E1EE100A7047FF2141EAAF
:102A8000D050C0057047FFFFFFFFFFFFFFFFFFFFB4
:102A9000FFFFFFFFFFFFFFFFFFFFFFFFFFFFFFFF46
:102AA000FFFFFFFFF7BEFFFFFFDEC6388C926B8E85
:102AB0006B6E7C10AD96E73CFFFFFFFFFFFFFFFF53
:102AC000FFFFFFFFFFFFFFFFFFFFFFFFFFFFFFFF16
:102AD000FFFFFFFFFFFFFFFFFFFFFFFFFFFFFFFF06
:102AE000FFFFFFFFFFFFFFFFFFFFFFFFFFFFFFFFF6
:102AF000FFFFFFFFEF5D9D15634F426C320A29888F
:102B000019461925214531E86B8EC638FFFFFFFFB6
:102B1000FFFFFFFFFFFFFFFFFFFFFFFFFFFFFFFFC5
:102B2000FFFFFFFFFFFFFFFFFFFFFFFFFFFFFFFFB5
:102B3000FFFFFFFFFFFFFFFFFFFFFFFFFFFFFFFFA5
:102B4000FFFFA53653104B1053514B0F3A6C31E930
:102B50002167192510E408A30062088352CBD69A96
:102B6000FFFFFFFFFFFFFFFFFFFFFFFFFFFFFFFF75
:102B7000FFFFFFFFFFFFFFFFFFFFFFFFFFFFFFFF65
:102B8000FFFFFFFFFFFFFFFFFFFFFFFFFFFFE73C30
:102B9000637063B37CB863F54311324D29EA218831
:102BA0001926190519051104110410E4008308A35E
:102BB0008C72FFFFFFFFFFFFFFFFFFFFFFFFFFFF25
:102BC000FFFFFFFFFFFFFFFFFFFFFFFFFFFFFFFF15
:102BD000FFFFFFFFFFFFFFFFFFFFFFFFDEDB3A4BC3
:102BE00042F06C354B5432B12A2E21EB21A91967E2
:102BF000190511041104110411041104190510E43C
:102C0000004273AFFFFFFFFFFFFFFFFFFFFFFFFF6C
:102C1000FFFFFFFFFFFFFFFFFFFFFFFFFFFFFFFFC4
:102C2000FFFFFFFFFFFFFFFFFFFFEF5D3209324CA9
:102C30004B10328F2A4F2A2E19CC19892189194716
:102C400019051104110410C410C411041104110455
:102C500010E400428431FFFFFFFFFFFFFFFFFFFF93
:102C6000FFFFFFFFFFFFFFFFFFFFFFFFFFFFFFFF74
:102C7000FFFFFFFFFFFFFFFFFFFF52EC1947324C42
:102C80002A0B21EC21EC220C5B914AEE110619264D
:102C9000190410E410E429A7216608A319051104FA
:102CA000110410E40082BDF7FFFFFFFFFFFFFFFFED
:102CB000FFFFFFFFFFFFFFFFFFFFFFFFFFFFFFFF24
:102CC000FFFFFFFFFFFFFFFFA53508832188218855
:102CD000218921AA218A426B8C71FFFF8C720883A3
:102CE000110408C44229DEFBEF5D5AEC088311048D
:102CF00011041104088331E8FFDFFFFFFFFFFFFF2E
:102D0000FFFFFFFFFFFFFFFFFFFFFFFFFFFFFFFFD3
:102D1000FFFFFFFFFFFFF7BE31C710C419251926BB
:102D20001947194729A8528A4A28AD55FFFF31E8AB
:102D300008A319056B4D6B4DFFFFEF7D214510C4B6
:102D40001104110411040062AD76FFFFFFFFFFFFC5
:102D5000FFFFFFFFFFFFFFFFFFFFFFFFFFFFFFFF83
:102D6000FFFFFFFFFFFFB596006211041904110574
:102D7000190508C44A8BB5B6EF5DBDF7FFFF6B8E32
:102D8000006242295AAA4208FFFFFFFF52CC088383
:102D900011041104110408A352ADFFFFFFFFFFFF50
:102DA000FFFFFFFFFFFFFFFFFFFFFFFFE71CFFFF2E
:102DB000FFFFFFFFFFFF634E0062110411041104C7
:102DC00010E40062638EFFFFFFFFFFFFFFFF73CF82
:102DD00000019CF3632CB596FFFFFFFF5B2D008382
:102DE00011041104110410E42167EF3DFFFFFFFF00
:102DF000FFFFFFFFFFFFBDF8B5B7EF9E52CB94B3C7
:102E0000FFFFFFFFFFDF31E808A3110411041104E5
:102E1000110408A34249F7FFF7FFFFFFFFFF4A6ACB
:102E200000018472FFFFFFFFF7FFEFDF3A0908A3FD
:102E300011041104110411041105BE18FFFFFFFF56
:102E4000FFFFFFFFFFFF7BF0006231E831C7004169
:102E5000A535FFFFEF5D214610C4110411041104D4
:102E6000110410E408A39D76F7FFFFFFADB708A398
:102E700008A331C7E79EF7FFF7FFA57608A310E484
:102E800011041104110411051105A535FFFFFFFF01
:102E9000FFFFFFFFFFFFDEDB29A7008310C410C484
:102EA00010C4E71CEF9E110510E411041104110475
:102EB0001104190408C410E56BD16BD108C5006476
:102EC00008A50043322B9D7784B3192510C4110443
:102ED000110411041104192509269D35FFFFFFFF78
:102EE000FFFFFFFFFFFFFFFF73AF0062190419052B
:102EF00000825B0D9B8E10621105110411041904F0
:102F000010E40085110539C45A817B409C22AC43F2
:102F1000A4039B837282498218C200A400C510E4F6
:102F2000190411041905194711675AECFFBEFFFF78
:102F3000FFFFFFFFFFFFFFDFDEDB10C410E4110423
:102F4000110518A4C001888300E41905190408C5F7
:102F500021448343D523FE42FEE4FF27FF07FEA45E
:102F6000FE64FE03FDA3FCE2EC42B383622410E5A1
:102F700008C41904192619A821879000BCD3FFFFA3
:102F8000FFFFFFFFFFFFFFDFFFFF7C10004219057F
:102F900011052883D001F84448A300E408C55A4429
:102FA000ED02FDE2FE02FE66FF74FFB8FF73F6E776
:102FB000F6A6F645F5A4FCC3FC62FCC2FCC2CBE35A
:102FC00049C411061988018790A4F8019AECFFFF03
:102FD000FFFFFFFFFFFFFFFFFFFFF7BE31E80083AA
:102FE00009054082C001F823F08548A300A45A4493
:102FF000FD02CC23DCC2FE04FE28F648F646F62489
:10300000F5E4FD64FCE3FC62FCC2E402DC02FCE2E9
:103010007AA40148016778C4F824F802B084E77DF7
:10302000FFFFFFFFFFFFFFFFFFFFFFFFDEDB1925B5
:1030300000A338C4E002D822F844F8A678A40063BC
:103040002143728339839B82F521FD61FD22FCE2DD
:10305000FCA2FC42FC42FC42AB22418392C35204DC
:103060000126192598A4F844F823F802D0A4EF9E6D
:10307000FFFFFFFFFFFFFFFFFFFFFFFFFFFFD69AEE
:10308000298700A5B843F822E023F865F8E8C907C6
:103090004883004200A3008429637AA2B362CBA2D2
:1030A000D362BB028A82398300A400E500E508E50B
:1030B00060C4D864F844F824F823F8028883C6DB97
:1030C000FFFFFFFFFFFFFFFFFFFFFFFFFFFFFFFF10
:1030D000E73D5B503108E823F843F044F865F9090F
:1030E000F9ABD189890648A3184200020042006169
:1030F000008200620062008320A350C488A5D885A6
:10310000F865F844F844F823F823D003108229C75F
:10311000EF5DFFFFFFFFFFFFFFFFFFFFFFFFFFFF71
:10312000FFFFFFFF326C38A5D802F823F865F86678
:10313000F8A7F94AFA0CFA4DEA4CD20BB9A9B168D2
:10314000A947B127B907D107E8E7F8C7F8A7F86595
:10315000F865F844F823F803D00228A3090508C449
:103160005AECFFFFFFFFFFFFFFFFFFFFFFFFFFFF27
:10317000FFFFDEFB190500C441A7C0E6F803F8868F
:10318000F8A7F887F886F8C7F929F98AF9ABF9ABF7
:10319000F98BF96AF929F908F8C7F8A6F886F865ED
:1031A000F864F823F002B106292500E410E419259B
:1031B00019259D14FFFFFFFFFFFFFFFFFFFFFFFF2C
:1031C000FFFFAD96006208829535CEBAA28BD0443F
:1031D000F825F887F8A7F8C7F8A7F887F886F886DB
:1031E000F886F887F8A7F8A7F8A6F885F865F864D0
:1031F000F024B864930DB6BB63CF0883110410E4C8
:1032000021663A49EF5DFFFFFFFFFFFFFFFFFFFF72
:10321000FFFF94D3004210E4CEBBFFFFE7BEB576BC
:10322000AACCC107E045F845F846F866F886F88666
:10323000F886F886F865F845F865E865D044A8434F
:1032400088019082D73CEFFF955508831104110443
:103250001905194694B3FFFFFFFFFFFFFFFFFFFFB4
:10326000FFFF94B300412186DF5DFFFFFFFFFFFFFB
:10327000E7DFC67AB4D3B34EC22AD168E0E6E8A647
:10328000E8A5E8A5D8E6C988A906A822A802A00052
:10329000C800D800E5F7E7FFADF810C410E411044A
:1032A00010E411054A8BFFFFFFFFFFFFFFFFFFFF49
:1032B000FFFFA555004129A7DF5DF7FFFFFFFFFFD7
:1032C000FFFFFFFFFFFFEFFFDF7DCEDBCE59CDF825
:1032D000CDD7C5F7CE79BEFBA2ABF003F845D042FF
:1032E000E843F000D472DFFFAE3910E410E41104BB
:1032F00010E411052987FFFFFFFFFFFFFFFFFFFF1E
:10330000FFFFCE5908832146D71CF7FFFFFFFFFFC1
:10331000FFFFFFFFFFFFFFFFFFFFFFFFFFFFFFFFBD
:10332000FFFFFFFFFFFFEFFFBA8BF804F845E062F5
:10333000F044F800DB8EDFFFA5F810C410E410E4C1
:10334000110410E41925FFFFFFFFFFFFFFFFFFFF40
:10335000FFFFF7BE29870883B639F7FFF7DFFFFFC6
:10336000FFFFFFFFFFFFFFFFFFFFFFFFFFFFFFFF6D
:10337000FFFFFFFFFFFFE7BEBA4AF803F845F86416
:10338000F844F800E36ED7FF8CF40883110410E4CE
:1033900010E410E41905FFFFFFFFFFFFFFFFFFFF31
:1033A000FFFFFFFF73EF00008472EFFFEFBEFFDF50
:1033B000FFFFFFFFFFFFFFFFFFFFFFFFFFFFFFFF1D
:1033C000FFFFFFFFFFFFE7DFBA8BF803F845F84583
:1033D000F823F800D4D3D7FF5B4E00213A29A55536
:1033E000088310C41925FFFFFFFFFFFFFFFFFFFF4A
:1033F000FFFFFFFFDEFB08A331E8DF9EE79EEFBF84
:10340000FFFFFFFFFFFFFFFFFFFFFFFFFFFFFFFFCC
:10341000FFFFFFFFFFFFF7FFBC51E002F803F003DF
:10342000E043C2ECCF7EBEFC2146002194D3FFFFD7
:10343000845100002987FFFFFFFFFFFFFFFFFFFF11
:10344000FFFFFFFFFFFF845100008CF4EFFFE79EBA
:10345000EFBFFFDFFFFFFFFFFFFFFFFFFFFFFFFFEC
:10346000FFFFFFFFFFFFFFFFDF3DBD55BC52BC72FA
:10347000B5B7C75DDFFF6BF000003A09F7BFFFFF8C
:10348000FFFF9D14A555FFFFFFFFFFFFFFFFFFFF9D
:10349000FFFFFFFFFFFFFFFF4AAC08A4BEBBE7DF53
:1034A000E77EEFBEF7DFFFDFFFFFFFFFFFFFFFFF5E
:1034B000FFFFFFFFFFFFFFDFF7DFEFFFDFDFD7BF1C
:1034C000D79EDFDFA5D808831126D6DBFFFFFFFFDD
:1034D000FFFFFFFFFFFFFFFFFFFFFFFFFFFFFFFFFC
:1034E000FFFFFFFFFFFFEE79DC8B312121A9CF3DEC
:1034F000DFBFDF7EE79EEFBEEFBFF7DFF7DFF7DF6F
:10350000F7DFF7DFEFBFEFBEE79EDF7ED75ED75E68
:10351000DFDFB69A19260842A3EDFFBFFFFFFFFFCA
:10352000FFFFFFFFFFFFFFFFFFFFFFFFFFFFFFFFAB
:10353000FFFFFFFFDD74DBC0FE00EE424202218987
:10354000B67BDFDFD77EDF7EDF7EE79EE79EE79EEE
:10355000E79EE79EDF7EDF7ED75DD75DDF9EE7FFDC
:10356000A5F8110718E3C502FD60D3E6EEDBFFFF07
:10357000FFFFFFFFFFFFFFFFFFFFFFFFFFFFFFFF5B
:10358000FFFFF79EBA84FCC1FE42FE82FEA2838149
:1035900021457474C75EDFDFD77ED75ED75DD75E07
:1035A000D75ED75DD75DD75EDF9EE7FFC73D63F18E
:1035B00008845242E626FF29FE86F3E0C36AFFFF35
:1035C000FFFFFFFFFFFFFFFFFFFFFFFFFFFFFFFF0B
:1035D000FFFFDE18D2C1FDA2FE22FE42FE42FE62C5
:1035E000D4E26A4142497453A63BC73ED7BFD7BF16
:1035F000D7BFDFBFD7BFC73EA61A63F229A7418254
:10360000B422FE62FE83FEAAFF0FFD67BA63EF3CA1
:10361000FFFFFFFFFFFFFFFFFFFFFFFFFFFFFFFFBA
:10362000FFFFE69AD280FD21FDC2F5E2F5C2F582E8
:10363000FD82FD62DC619B216A846AE9632C63AFD1
:103640007411636E632C5A8952047A81CBC2FCE2F6
:10365000FD62FD82FDC2FDC2FDE4FD24CA62E71CDD
:10366000FFFFFFFFFFFFFFFFFFFFFFFFFFFFFFFF6A
:10367000FFFFFFFFCCB1D281F3C0FCC1FD02FD0210
:10368000FCE2FCC2FCC2FC81FB80C9C081A4AD3558
:10369000CE599C718121DA00FBA1FC82FCA2FC8244
:1036A000FCA2FD02FD22FCE2FC00DA60CC90FFFFF0
:1036B000FFFFFFFFFFFFFFFFFFFFFFFFFFFFFFFF1A
:1036C000FFFFFFFFFFFFDE59C40DCB06D2E4DB0393
:1036D000DB03DAE3D2C3C2A4B309BCD2F79EFFFF77
:1036E000FFFFFFFFE6FBB40EBAA6D283E2E3EB02D4
:1036F000EB22E322DB03D2E4C36AD5B6FFFFFFFF70
:10370000FFFFFFFFFFFF00000000000000000000BF
:103710000000000004040404040000040000141469
:103720000A00000000000000000000000A0A1F0A52
:103730000A1F0A0A000000040E1505060C14150ED7
:103740000400000012150D152E2C2A120000000096
:10375000040A0A36151529160000020201000000AD
:103760000000000000001008080404040404080815
:1037700010000204040808080808040402000000FD
:103780000004150E0E150400000000000008083E9D
:103790000808000000000000000000000000020215
:1037A000010000000000003F0000000000000000D9
:1037B00000000000000000020000002010100808B7
:1037C00004040202010000000E1111111111110E6A
:1037D00000000000040604040404040E00000000BD
:1037E0000E1111080402011F000000000E11100C40
:1037F0001010110E00000000080C0C0A091F081C14
:10380000000000001F01010F1110110E0000000048
:103810000C12010D1311110E000000001E100808FB
:1038200004040404000000000E11110E1111110E09
:10383000000000000E11111916100906000000000A
:10384000000004000000000400000000000000046C
:103850000000000404000000100804020204081024
:103860000000000000003F003F00000000000000DA
:103870000204081010080402000000000E111108D4
:1038800004040004000000001C22292D2D1D221C10
:103890000000000004040C0A0A1E1233000000009D
:1038A0000F12120E1212120F000000001E11010161
:1038B0000101110E000000000F1212121212120F5D
:1038C000000000001F120A0E0A02121F0000000072
:1038D0001F120A0E0A020207000000001C1201015A
:1038E0003911120C000000003312121E1212123392
:1038F000000000001F0404040404041F0000000072
:103900003E080808080808080907000037120A06D8
:103910000A12123700000000070202020202223FD0
:10392000000000003B1B1B1B151515350000000097
:103930003B1216161A1A1217000000000E11111170
:103940001111110E000000000F12120E02020207E8
:10395000000000000E1111111117190E18000000BF
:103960000F12120E0A121237000000001E1101067B
:103970000810110F000000001F1504040404040EB9
:1039800000000000331212121212120C000000008C
:103990003312120A0A0C0404000000001515151554
:1039A0000E0A0A0A000000001B0A0A04040A0A1B85
:1039B000000000001B0A0A0A0404040E00000000B4
:1039C0001F0908040402121F00001C04040404045C
:1039D000040404041C000002020404040808081083
:1039E00010000E0808080808080808080E00040A55
:1039F00000000000000000000000000000000000C7
:103A000000000000003F0204000000000000000071
:103A1000000000000000000C121C123C000000031B
:103A20000202020E1212120E000000000000001C22
:103A30001202120C000000181010101C1212123C7E
:103A4000000000000000000C121E021C0000001804
:103A50002404041E0404041E000000000000003CB6
:103A6000120C021C221C00030202020E1212123758
:103A700000000004040000060404040E0000000816
:103A80000800000C08080808080700030202021AD0
:103A90000A060A1300000007040404040404041FB7
:103AA000000000000000000F1515151500000000B3
:103AB0000000000F12121237000000000000000C7E
:103AC0001212120C000000000000000F1212120E61
:103AD000020700000000001C1212121C1038000027
:103AE0000000001B06020207000000000000001E8C
:103AF000020C101E000000000004041E0404041C3C
:103B0000000000000000001B1212123C0000000028
:103B10000000001B0A0A0404000000000000001559
:103B2000150E0A0A000000000000001B0A040A1B10
:103B3000000000000000003312120C080403000013
:103B40000000001E0804041E000018080808080CE5
:103B500008080808180008080808080808080808DD
:103B600008080604040404080404040406001609F2
:103B70000000000000000000000000000000000045
:103B8000000000000000000000000000000808081D
:103B90000808080800001818000000486C241200EB
:103BA00000000000000000000000000000242424A9
:103BB0007F1212127F12121200000000081C2A2A23
:103BC0000A0C1828282A2A1C08080000002225159B
:103BD00015152A585454542200000000000C1212EB
:103BE000120A76252911916E0000000606040300D2
:103BF000000000000000000000000040201010083D
:103C000008080808081010204000000204080810E6
:103C1000101010101008080402000000000008082E
:103C20006B1C1C6B08080000000000000000080866
:103C300008087F08080808000000000000000000D5
:103C40000000000000000606040300000000000061
:103C50000000FE0000000000000000000000000066
:103C60000000000000000606000000008040402028
:103C7000201010080804040202000000001824426A
:103C800042424242424224180000000000080E084E
:103C9000080808080808083E00000000003C4242EE
:103CA000422020100804427E00000000003C4242F6
:103CB000201820404042221C000000000020302834
:103CC000242422227E20207800000000007E0202B0
:103CD000021A26404042221C000000000038240244
:103CE000021A26424242241800000000007E2222CE
:103CF000101008080808080800000000003C4242B4
:103D0000422418244242423C000000000018244291
:103D1000424264584040241C0000000000000000A3
:103D20001818000000001818000000000000000033
:103D300000080000000000080804000000402010F7
:103D400008040204081020400000000000000000E9
:103D50007F0000007F000000000000000002040857
:103D6000102040201008040200000000003C4242E5
:103D7000464020101000181800000000001C225AB5
:103D8000555555552D42221C00000000000808180A
:103D90001414243C224242E700000000001F2222AB
:103DA000221E22424242221F00000000007C4242AA
:103DB000010101010142221C00000000001F2242FB
:103DC000424242424242221F00000000003F421293
:103DD000121E12120242423F00000000003F421237
:103DE000121E12120202020700000000003C2222F2
:103DF000010101712122221C0000000000E7424263
:103E000042427E42424242E700000000003E080873
:103E1000080808080808083E00000000007C101090
:103E20001010101010101010110F00000077221247
:103E30000A0E0A1212222277000000000007020276
:103E4000020202020202427F0000000000773636C2
:103E500036362A2A2A2A2A6B0000000000E346464A
:103E60004A4A52525262624700000000001C22413E
:103E7000414141414141221C00000000003F4242BB
:103E800042423E020202020700000000001C2241E2
:103E9000414141414D53321C60000000003F42420D
:103EA000423E1212222242C700000000007C424221
:103EB000020418204042423E00000000007F4908F2
:103EC000080808080808081C0000000000E7424233
:103ED000424242424242423C0000000000E742426D
:103EE000222424141418080800000000006B49491B
:103EF00049495555362222220000000000E742249D
:103F000024181818242442E7000000000077222219
:103F1000141408080808081C00000000007E212076
:103F2000101008040442423F000000780808080806
:103F300008080808080808087800000002020404BD
:103F400008080810102020204040001E10101010FB
:103F500010101010101010101E0000384400000047
:103F60000000000000000000000000000000000051
:103F7000000000000000000000FF00060800000034
:103F80000000000000000000000000000000000031
:103F9000003C4278444242FC000000000003020260
:103FA000021A26424242261A0000000000000000C9
:103FB0000038440202024438000000000060404023
:103FC00040784442424264D80000000000000000F3
:103FD000003C427E0202423C0000000000F08808E3
:103FE000087E08080808083E0000000000000000E5
:103FF000007C22221C023C42423C000000030202E0
:10400000023A4642424242E700000000000C0C0027
:10401000000E08080808083E0000000000303000CC
:104020000038202020202020221E00000003020251
:104030000272120A1612227700000000000E080811
:10404000080808080808083E0000000000000000FA
:10405000007F9292929292B7000000000000000050
:10406000003B4642424242E70000000000000000E0
:10407000003C42424242423C00000000000000007E
:10408000001B26424242221E0207000000000000E0
:10409000007844424242447840E0000000000000C2
:1040A00000774C040404041F00000000000000001E
:1040B000007C42023C40423E00000000000000083C
:1040C000083E080808080830000000000000000052
:1040D00000634242424262DC000000000000000037
:1040E00000E742242414080800000000000000003B
:1040F00000EB494955552222000000000000000055
:10410000007624181818246E00000000000000003B
:1041100000E74224241418080807000000000000EB
:10412000007E22100808447E000000C020202020CD
:104130002010202020202020C0001010101010106F
:1041400010101010101010101010000608080808A9
:10415000081008080808080806000C32C200000011
:10416000000000000000000000000000000000004F
:10417000000000000000000000000000000000003F
:10418000000000000000000000000000000000002F
:10419000000000000000000000000000000000001F
:1041A000000060006000600060006000600060006F
:1041B00040002000200020000000000000006000FF
:1041C00060006000000000000000000000006006C9
:1041D00060063003980188004400000000000000E1
:1041E00000000000000000000000000000000000CF
:1041F00000000000000000000000000000000000BF
:1042000000001002100210021002FE07FE07080252
:104210000801080108010801FE07FE070401040166
:104220000401040100000000000000000000000084
:1042300040004000F00158034C03CC034C005800F0
:104240007000E000C001C00140034C035C034C035C
:104250004801F000400040000000000000000000A5
:1042600000000E010A0191009100910051005100DF
:104270003A00AE03A0025004500448044804480425
:104280008402840300000000000000000000000021
:10429000000038006C006C006C006C006C002C009E
:1042A00098071C011A01330133016301E300C308BD
:1042B000C6093C07000000000000000000000C00E0
:1042C0001C001000100008000400000000000000A6
:1042D00000000000000000000000000000000000DE
:1042E00000000000000000000000000000000004CA
:1042F00000020001800080004000400020002000FB
:10430000200020002000200020004000400080000D
:104310008000000100020004000000000000020014
:1043200004000800100010002000200040004000A1
:1043300040004000400040004000200020001000ED
:10434000100008000400020000000000000000004F
:104350000000000000004000C0004000460C4E0F6E
:10436000D001F0015E0F460C40004000400000000C
:10437000000000000000000000000000000000003D
:10438000000000000000000040004000400040002D
:104390004000FE0F40004000400040004000000090
:1043A000000000000000000000000000000000000D
:1043B00000000000000000000000000000000000FD
:1043C00000000000000000000000000000000C00E1
:1043D0001C00100010000800040000000000000095
:1043E00000000000000000000000000000000000CD
:1043F0000000FE07000000000000000000000000B8
:1044000000000000000000000000000000000000AC
:10441000000000000000000000000000000000009C
:1044200000000000000000000000000000001C0070
:104430001C001C0000000000000000000000000440
:10444000000600020003000100018000800040001F
:10445000400060002000200010001000080008004C
:104460000C00040006000200000000000000000034
:1044700000000000F00098010C030C03060606067D
:104480000606060606060606060606060C030C03C6
:104490009801F00000000000000000000000000093
:1044A0000000000040007C006000600060006000D0
:1044B00060006000600060006000600060006000FC
:1044C0006000FC030000000000000000000000008D
:1044D00000000000F8008401020306030603000345
:1044E00000018001C00060002000100008020402EA
:1044F0000602FE03000000000000000000000000B3
:10450000000000007800C60086018601800180015D
:10451000C0007000800100010003000306030603D1
:104520008601F8000000000000000000000000000C
:104530000000000080018001C001A001A0019001E5
:104540008801880184018201FE0F800180018001C1
:104550008001E007000000000000000000000000F3
:1045600000000000FC030400040004000400040038
:10457000F4008C0104030003000306030603820118
:104580008401F800000000000000000000000000AE
:1045900000000000E00118030C030C0004000600FA
:1045A000E60116030E0606060606060604060C02BB
:1045B0001803F000000000000000000000000000F0
:1045C00000000000F8070C060402040100010001CD
:1045D00080008000400040004000600060006000FB
:1045E000600060000000000000000000000000000B
:1045F00000000000F8010C030606060606060C0281
:104600001C03F000C8010C03060606060606060693
:104610000C03F0010000000000000000000000009A
:1046200000000000F0000C010C030602060606065E
:10463000060606078C0678060006000300030C0138
:104640008C01780000000000000000000000000065
:104650000000000000000000000000000000E0007A
:10466000E000E00000000000000000000000E000AA
:10467000E000E0000000000000000000000000007A
:1046800000000000000000000000000000006000CA
:1046900060000000000000000000000000000000BA
:1046A00060006000400020002000000000000000CA
:1046B0000000000400020001800040002000100003
:1046C00008000400080010002000400080000001E5
:1046D00000020004000000000000000000000000D4
:1046E0000000000000000000000000000000FE07C5
:1046F000000000000000FE070000000000000000B5
:1047000000000000000000000000000000000000A9
:10471000000004000800100020004000800000019C
:104720000002000400020001800040002000100090
:10473000080004000000000000000000000000006D
:1047400000000000E0031806040C040C0C0C0C0C18
:104750000007800140004000400000000000E00031
:10476000E000E00000000000000000000000000089
:104770000000E00018030C02CC0564056605A605E0
:10478000B604B604B604B604B602E4010C040C0286
:104790001803F0000000000000000000000000000E
:1047A00000000000600060005000D0009000900009
:1047B000880088010801F8010403040304020202CE
:1047C00002060F0F000000000000000000000000C3
:1047D00000000000FE008C030C030C030C030C0310
:1047E0008C01FC000C030C020C060C060C060C06DB
:1047F0000C03FE01000000000000000000000000AB
:1048000000000000E00318030C060C04040406007A
:104810000600060006000600060006040C040C0252
:104820001803F0000000000000000000000000007D
:10483000000000007F008C010C030C030C060C062A
:104840000C060C060C060C060C060C060C030C03DE
:104850008C017F000000000000000000000000004C
:1048600000000000FF03060306040604060086009D
:104870008600FE0086008600860006000604060408
:104880000602FF030000000000000000000000001E
:1048900000000000FF03060306040604060086006D
:1048A0008600FE00860086008600060006000600E0
:1048B00006001F00000000000000000000000000D3
:1048C00000000000F00018010C020C0204020600B7
:1048D000060006000600C60F060306030C030C03C1
:1048E0001803F000000000000000000000000000BD
:1048F000000000000F0F060606060606060606065E
:104900000606FE070606060606060606060606064E
:1049100006060F0F0000000000000000000000006D
:1049200000000000FC0360006000600060006000A8
:104930006000600060006000600060006000600077
:104940006000FC0300000000000000000000000008
:1049500000000000F807C000C000C000C000C00098
:10496000C000C000C000C000C000C000C000C00047
:10497000C000C000C60066003C000000000000004F
:1049800000000000CF038601C60046002600160086
:1049900036002E006E004600C60086008601060125
:1049A00006038F0700000000000000000000000068
:1049B000000000001F0006000600060006000600BA
:1049C00006000600060006000600060006040604AF
:1049D0000602FF03000000000000000000000000CD
:1049E000000000000707860386038E038E034E0334
:1049F0004E034A035A035A033A0332033203320383
:104A00001203870700000000000000000000000003
:104A1000000000008E0F0C021C021C023402340243
:104A2000640264024402C402840284038403040313
:104A300004031F020000000000000000000000004E
:104A400000000000F00098010C030C0206060606A8
:104A50000606060606060606060606060C020C03F1
:104A60009801F000000000000000000000000000BD
:104A700000000000FF0006030606060606060606FE
:104A800006068603FE000600060006000600060075
:104A900006001F00000000000000000000000000F1
:104AA00000000000F00098010C030C020606060648
:104AB0000606060606060606060676064C02CC0321
:104AC0009801F000800700030000000000000000D3
:104AD00000000000FF01060306060606060606069D
:104AE0000603FE004600C600860086010603060394
:104AF00006060F0E0000000000000000000000008D
:104B000000000000F8020C030602060206000E0078
:104B10003C00F800E00380030007020602060606D8
:104B20000C03F00100000000000000000000000085
:104B300000000000FE076204610861086000600078
:104B40006000600060006000600060006000600065
:104B50006000F801000000000000000000000000FC
:104B6000000000001E070C020C020C020C020C02DA
:104B70000C020C020C020C020C020C020C020C02C5
:104B80001801F0000000000000000000000000001C
:104B9000000000000F070602040104010C010C01D3
:104BA0008800880098009800500050007000300085
:104BB00020002000000000000000000000000000B5
:104BC00000000000F70E620442044604460464023A
:104BD0006402E402E4029C029C01980198018801AD
:104BE00088008800000000000000000000000000B5
:104BF000000000009E070C01080118019000B000A1
:104C00006000200060006000D00090008801080172
:104C100004038E07000000000000000000000000F8
:104C2000000000000F0F060404020C020801180126
:104C3000B800B000700060006000600060006000BC
:104C40006000F8010000000000000000000000000B
:104C500000000000FC070C02060302018001800036
:104C600040004000200020001000180008040C0440
:104C70000402FE0300000000000000000000E0034A
:104C80002000200020002000200020002000200024
:104C90002000200020002000200020002000200014
:104CA000200020002000E0030000000000000000C1
:104CB00000000400040008000800100010001000AC
:104CC0002000200040004000C00080008000000163
:104CD00000010002000200020004000000007C004D
:104CE00040004000400040004000400040004000C4
:104CF00040004000400040004000400040004000B4
:104D00004000400040007C00000000006000900077
:104D1000080100000000000000000000000000008A
:104D20000000000000000000000000000000000083
:104D30000000000000000000000000000000000073
:104D40000000000000000000000000000000000063
:104D50000000000000000000000000000000000053
:104D60000000000000000000FF0F0000000018001D
:104D700060000000000000000000000000000000D3
:104D80000000000000000000000000000000000023
:104D90000000000000000000000000000000000013
:104DA0000000000000000000000000000000F00112
:104DB0000C030C030003E0031C030E0306030603AD
:104DC0008E0B7C0E000000000000000000000000C0
:104DD000000008000E000C000C000C000C00CC01C0
:104DE0003C031C060C060C060C060C060C060C02FA
:104DF0001C03E401000000000000000000000000AF
:104E00000000000000000000000000000000F000B2
:104E10008C018C01860106000600060006020C02C9
:104E20000C01F00000000000000000000000000085
:104E300000000002C0030003000300030003780326
:104E40008C030C0306030603060306030603040390
:104E50008C07780100000000000000000000000046
:104E60000000000000000000000000000000E00161
:104E7000180308020C060C06FC070C000C001804B2
:104E80001802E00100000000000000000000000027
:104E900000000000C0036006300630003000FE0154
:104EA0003000300030003000300030003000300082
:104EB0003000FC01000000000000000000000000C5
:104EC0000000000000000000000000000000F007EB
:104ED000D8068C018C018C019801F8000C00FC00B4
:104EE000CC03060306038E03F80000000000000058
:104EF000000008000E000C000C000C000C00EC017F
:104F00001C030C030C030C030C030C030C030C0319
:104F10000C039E07000000000000000000000000DD
:104F200000000000600060000000000040007C0005
:104F30006000600060006000600060006000600071
:104F40006000FC0300000000000000000000000002
:104F500000000000C001C001000000000001F001DD
:104F60008001800180018001800180018001800139
:104F7000800180018001CC007C0000000000000066
:104F8000000008000E000C000C000C000C008C034C
:104F90008C008C004C006C005C008C008C010C01BF
:104FA0000C039E070000000000000000000000004D
:104FB000000040007C006000600060006000600055
:104FC00060006000600060006000600060006000E1
:104FD0006000FC0300000000000000000000000072
:104FE0000000000000000000000000000000370783
:104FF000EE066606660666066606660666066606C9
:105000006606FF0F00000000000000000000000026
:105010000000000000000000000000000000EE01A1
:105020001C030C030C030C030C030C030C030C03F8
:105030000C039E07000000000000000000000000BC
:105040000000000000000000000000000000F00070
:1050500098010C03060606060606060606060C035D
:105060000C03F00000000000000000000000000041
:105070000000000000000000000000000000EE0141
:105080001C030C060C060C060C060C060C060C0386
:105090001C03EC010C000C003E00000000000000AE
:1050A0000000000000000000000000000000780286
:1050B0008C030C030603060306030603060304031E
:1050C0008C03780300030003C00700000000000009
:1050D00000000000000000000000000000009F032E
:1050E0005806380618001800180018001800180094
:1050F0001800FF0000000000000000000000000099
:105100000000000000000000000000000000F003AC
:105110001C030C020C023800F000C003040304035B
:105120008C03FC01000000000000000000000000F3
:105130000000000000002000200030003000FE01D0
:1051400030003000300030003000300030003002DD
:105150003002E0010000000000000000000000003C
:1051600000000000000000000000000008028E03A4
:105170000C030C030C030C030C030C030C030C03B7
:105180009C07780100000000000000000000000003
:1051900000000000000000000000000000001E07EA
:1051A0000C020801080118019000B000B000600076
:1051B000600020000000000000000000000000006F
:1051C0000000000000000000000000000000F70EDA
:1051D0006204460464026402EC029C019801980196
:1051E000980108000000000000000000000000001E
:1051F0000000000000000000000000000000BC07EC
:1052000018011001B00060006000E000900008018B
:1052100008039E07000000000000000000000000DE
:1052200000000000000000000000000000009E07D9
:1052300008010801080190009000B00060006000C3
:1052400060002000200024001C000000000000007E
:105250000000000000000000000000000000FC0151
:105260008401C400440060002000300018020802DD
:105270000C03FC010000000000000000000000031F
:10528000800080008000800080008000800080001E
:1052900040002000400080008000800080008000EE
:1052A00080008000800000030000400040004000BB
:1052B00040004000400040004000400040004000EE
:1052C00040004000400040004000400040004000DE
:1052D00040004000400040004000000000000C0082
:1052E000100010001000100010001000100010003E
:1052F00020004000200010001000100010001000DE
:105300001000100010000C00000000001C0022041F
:10531000C204800300000000000000000000000044
:10532000000000000000000000000000000000007D
:10533000000000000000000000000000000000006D
:10534000000000000000000000000000000000005D
:10535000000000000000000000000000000000004D
:10536000000000000000000000000000000000003D
:10537000000000000000000000000000000000002D
:1053800000000000C001C001C001C001C001C00197
:10539000C0018000800080008000800080008000CC
:1053A00000000000000000008001C003C003800175
:1053B00000000000000000000000000000000000ED
:1053C000E01CE01CF01E700E380718030801840072
:1053D00000000000000000000000000000000000CD
:1053E00000000000000000000000000000000000BD
:1053F00000000000000000000000000000000000AD
:1054000000000000000020102010201020102010AC
:10541000FE7FFE7F10081008100810081008100802
:105420001008FE7FFE7F080408040804080408042E
:10543000000000000000000000000000000000006C
:10544000000000010001C00760191031183118393F
:10545000183938017001E001C0038007000F001DFA
:10546000003900311C311C310C310C11180DE007D2
:105470000001000100010000000000000000000029
:105480000000000000001C1036186308630C630461
:105490006304630263026301361D9C3780228063CC
:1054A0004063406320632063306310221836081C79
:1054B00000000000000000000000000000000000EC
:1054C000000000000000F00098018C018C018C01AC
:1054D0008C018C00CC007800183E1C08360832087D
:1054E00063046304C304C303834306438E26781C0A
:1054F00000000000000000000000000000000000AC
:105500001C003C003C003000300010000C00060085
:10551000000000000000000000000000000000008B
:10552000000000000000000000000000000000007B
:10553000000000000000000000000000000000006B
:105540000040002000100008000C000400060003CA
:10555000000300038001800180018001800180013F
:105560008001800100030003000300060006000C18
:1055700000080010002000400000000000000000B3
:105580000200040008001000300020006000C0008D
:10559000C000C00080018001800180018001800185
:1055A00080018001C000C000C000600060003000C9
:1055B00010000800040002000000000000000000CD
:1055C00000000000000000000000000180038003D4
:1055D00000011C713C79783DC0070001C007783D8F
:1055E0003C791C71000180038003800100000000F1
:1055F00000000000000000000000000000000000AB
:105600000000000000000000000000000001000198
:1056100000010001000100010001FC7F0001000108
:105620000001000100010001000100000000000075
:10563000000000000000000000000000000000006A
:10564000000000000000000000000000000000005A
:10565000000000000000000000000000000000004A
:10566000000000000000000000001C003C003C00A6
:105670003000300010000C000600000000000000A8
:10568000000000000000000000000000000000001A
:1056900000000000000000000000FE7F000000008D
:1056A00000000000000000000000000000000000FA
:1056B00000000000000000000000000000000000EA
:1056C00000000000000000000000000000000000DA
:1056D00000000000000000000000000000000000CA
:1056E000000000000000000018003C003C00180012
:1056F00000000000000000000000000000000000AA
:105700000040006000200030001000180008000C6D
:105710000004000600020003000180018000C000B8
:1057200040006000200030001000180008000C004D
:10573000040006000200000000000000000000005D
:10574000000000000000C007600C3018183018304E
:1057500018200C600C600C600C600C600C600C601D
:105760000C600C601820183018303018600CC0071E
:105770000000000000000000000000000000000029
:1057800000000000000000018001F801800180019C
:105790008001800180018001800180018001800101
:1057A000800180018001800180018001C003F81F19
:1057B00000000000000000000000000000000000E9
:1057C000000000000000E007101C0818043004303E
:1057D0000C300C30003000180008000400020001FA
:1057E000800040002020102008200430FC1FFC1FF7
:1057F00000000000000000000000000000000000A9
:10580000000000000000E003180E0C0C0C180C182F
:105810000C180018000C0006C003000E0018001041
:10582000003000300C300C300C100C18180CE00359
:105830000000000000000000000000000000000068
:10584000000000000000000C000E000E000F800E93
:10585000800E400E600E200E100E100E080E040E6C
:10586000040EFE7F000E000E000E000E000E000E55
:10587000C07F0000000000000000000000000000E9
:10588000000000000000F03FF03F1000100010008A
:1058900008000800C807280C18180810003000304D
:1058A000003000300C300C3004180418080CF003E1
:1058B00000000000000000000000000000000000E8
:1058C000000000000000800FC010203010301800D1
:1058D000180008000C008C0F6C183C301C600C6029
:1058E0000C600C600C601860182030306018C00725
:1058F00000000000000000000000000000000000A8
:10590000000000000000F83FF83F1C100C080408DD
:1059100004040004000200020001000100018000F4
:1059200080008000C000C000C000C000C000C000F7
:105930000000000000000000000000000000000067
:10594000000000000000E007300C18180C300C308C
:105950000C301C3038187008E007B007180E0C1C0B
:10596000063806300630063006300C18180CE003F6
:105970000000000000000000000000000000000027
:10598000000000000000E00318040C080C180610CA
:10599000063006300630063006380C3C1836F0313A
:1059A00000300018001800180C0C0C060C03F00155
:1059B00000000000000000000000000000000000E7
:1059C00000000000000000000000000000000000D7
:1059D000000000008001C003C0038001000000003F
:1059E00000000000000000008001C003C00380012F
:1059F00000000000000000000000000000000000A7
:105A00000000000000000000000000000000000096
:105A100000000000C000C000000000000000000006
:105A2000000000000000000000000000C000C000F6
:105A300080008000400040000000000000000000E6
:105A40000000000000200010000800040006000311
:105A50008001C0006000300018000C001800300009
:105A60006000C00080010003000600040008001070
:105A70000020000000000000000000000000000006
:105A80000000000000000000000000000000000016
:105A900000000000FE7F0000000000000000000089
:105AA000FE7F000000000000000000000000000079
:105AB00000000000000000000000000000000000E6
:105AC0000000000004000800100020006000C0007A
:105AD000800100030006000C001800300018000CC4
:105AE000000600038001C0006000200010000800D4
:105AF00004000000000000000000000000000000A2
:105B000000000000C0073018083008600C601C60FE
:105B10001C601C600030001C00060001800080003A
:105B200080008000000000008001C003C0038001ED
:105B30000000000000000000000000000000000065
:105B4000000000000000C0076018103018200C2F63
:105B50008C4D864CC64CC64C664C664466446626E4
:105B600066266615CC1C0C40082018303018C0077B
:105B70000000000000000000000000000000000025
:105B8000000000000001C001C001C001400160032D
:105B90002003200320033006100610061006F80F1D
:105BA000080C080C080C0C0C0418041806181F7CB0
:105BB00000000000000000000000000000000000E5
:105BC000000000000000FE07181C183818301830BC
:105BD000183018301818180CF80718181830182032
:105BE0001860186018601860186018301818FE0FD8
:105BF00000000000000000000000000000000000A5
:105C0000000000000000C0276038103018200C4051
:105C10000C40040006000600060006000600060010
:105C2000060006000C400C400C2018303018C0074D
:105C30000000000000000000000000000000000064
:105C4000000000000000FE03180E1818183018306D
:105C500018301860186018601860186018601860B4
:105C6000186018601830183018101818180EFE0335
:105C70000000000000000000000000000000000024
:105C8000000000000000FE3F183018201860184087
:105C9000180018081808180CF80F180C180818081D
:105CA0001800180018001840184018201830FE3F3F
:105CB00000000000000000000000000000000000E4
:105CC000000000000000FE7F1870184018C0188007
:105CD0001800181018101818F81F18181810181095
:105CE00018001800180018001800180018007E008E
:105CF00000000000000000000000000000000000A4
:105D0000000000000000C013701C101018100C20C0
:105D10000C2004000600060006000600060006FC33
:105D2000063006300C300C30183018303008C00700
:105D30000000000000000000000000000000000063
:105D40000000000000003F7E0C180C180C180C1806
:105D50000C180C180C180C180C18FC1F0C180C182C
:105D60000C180C180C180C180C180C180C183F7E7A
:105D70000000000000000000000000000000000023
:105D8000000000000000F81F8001800180018001F8
:105D900080018001800180018001800180018001FB
:105DA0008001800180018001800180018001F81F55
:105DB00000000000000000000000000000000000E3
:105DC000000000000000E07F00060006000600065C
:105DD0000006000600060006000600060006000693
:105DE0000006000600060006000600060006000683
:105DF00000060E060E038E01FC00000000000000ED
:105E00000000000000007E7C18181808180418060E
:105E10001802180198019801D801B803380318072F
:105E20001806180E180C181C1818183018307EFC9C
:105E30000000000000000000000000000000000062
:105E40000000000000007E00180018001800180074
:105E50001800180018001800180018001800180082
:105E60001800180018001840184018201830FE3F7D
:105E70000000000000000000000000000000000022
:105E80000000000000001FF81C381C381C381C3CA7
:105E900034343434343434367432643264326432F8
:105EA0006431C431C431C431C430C43084309FFC47
:105EB00000000000000000000000000000000000E2
:105EC0000000000000001F7C1C103C103410341037
:105ED00074106410E410C410C411841184130413EA
:105EE00004170416041E041C041C041C04181F18A8
:105EF00000000000000000000000000000000000A2
:105F0000000000000000C003300C181808100C300E
:105F10000C3006600660066006600660066006607B
:105F2000066006600C200C3008101818300CC003F6
:105F30000000000000000000000000000000000061
:105F4000000000000000FE0F1818183018601860DC
:105F500018601860186018301818F80F180018002A
:105F600018001800180018001800180018007E000B
:105F70000000000000000000000000000000000021
:105F8000000000000000C003300C18180C100C308A
:105F90000C2006600660066006600660066006600B
:105FA00006600660E4612C331C321816300EC00700
:105FB000004C007C003800000000000000000000E1
:105FC000000000000000FE07181C183818301830B8
:105FD000183018301818180CF80798031803180709
:105FE00018061806180E180C180C181C18187E78AD
:105FF00000000000000000000000000000000000A1
:10600000000000000000E027303818300C200C2081
:106010000C000C0018007800E003800F001E003810
:106020000070006004600460086018303818C80F01
:106030000000000000000000000000000000000060
:10604000000000000000FC3F8C21846182418241FD
:106050008001800180018001800180018001800138
:106060008001800180018001800180018001E007C2
:106070000000000000000000000000000000000020
:106080000000000000003F7C0C100C100C100C10E5
:106090000C100C100C100C100C100C100C100C1020
:1060A0000C100C100C100C100C1008083804E00335
:1060B00000000000000000000000000000000000E0
:1060C0000000000000003EF81820182018203010B2
:1060D000301030103010600860086008E00CC00418
:1060E000C004C0048003800380038003000100011A
:1060F00000000000000000000000000000000000A0
:10610000000000000000DFF38661862186218C21DB
:106110000C218C238C138C138C134C13581258168F
:10612000580E380E380E380E300C100410041004BF
:10613000000000000000000000000000000000005F
:106140000000000000007E3E1808380830043004CB
:1061500070026002E001C001C001800180034003C1
:10616000400720062006100C100C081808183E7C6A
:10617000000000000000000000000000000000001F
:106180000000000000007E7C1C1018101808300869
:10619000300C700460046002C002C002C0018001C3
:1061A0008001800180018001800180018001E00781
:1061B00000000000000000000000000000000000DF
:1061C000000000000000F83F18180818040C040E26
:1061D00000060007000380038001C001C000E0004A
:1061E000600070003000382018201C100C18FE1FB2
:1061F000000000000000000000000000000000009F
:10620000C03F4000400040004000400040004000CF
:10621000400040004000400040004000400040007E
:10622000400040004000400040004000400040006E
:1062300040004000C03F00000000000000000000DF
:1062400000000000080018001800100030002000B6
:10625000600060004000C0008000800180010001FB
:1062600000030002000600060004000C00080018ED
:1062700000180010003000200000000000000000A6
:10628000FC03000200020002000200020002000201
:1062900000020002000200020002000200020002EE
:1062A00000020002000200020002000200020002DE
:1062B00000020002FC0300000000000000000000DB
:1062C0008007C00620081010000000000000000039
:1062D00000000000000000000000000000000000BE
:1062E00000000000000000000000000000000000AE
:1062F000000000000000000000000000000000009E
:10630000000000000000000000000000000000008D
:10631000000000000000000000000000000000007D
:10632000000000000000000000000000000000006D
:106330000000000000000000FFFF0000000000005F
:106340007800C00000010000000000000000000014
:10635000000000000000000000000000000000003D
:10636000000000000000000000000000000000002D
:10637000000000000000000000000000000000001D
:10638000000000000000000000000000000000000D
:1063900000000000F00318060C0C0C0C000C800F21
:1063A000700C1C0C0C0C060C060C064C0C4FF83830
:1063B00000000000000000000000000000000000DD
:1063C0000000000010001E0018001800180018003F
:1063D00018001800180FD818383038601860186086
:1063E0001860186018601860182038307818C807CE
:1063F000000000000000000000000000000000009D
:10640000000000000000000000000000000000008C
:1064100000000000C007700C181818180C180C00A9
:106420000C000C000C000C20182018103008C007BD
:10643000000000000000000000000000000000005C
:10644000000000000010001E0018001800180018BE
:1064500000180018E01B301C181818180C180C181D
:106460000C180C180C180C180818181C307AE009B5
:10647000000000000000000000000000000000001C
:10648000000000000000000000000000000000000C
:1064900000000000C007300C181808100C300C3039
:1064A000FC3F0C000C000C00182018107018C007DE
:1064B00000000000000000000000000000000000DC
:1064C000000000000000003E80C380C0C0C0C000CB
:1064D000C000C000FC1FC000C000C000C000C00061
:1064E000C000C000C000C000C000C000C000F80F65
:1064F000000000000000000000000000000000009C
:10650000000000000000000000000000000000008B
:1065100000000000C077306C1018181818181818F0
:106520001018300CF00718001800F00FF03F08703A
:106530000C600C600C603838E00F000000000000B8
:106540000000000010001E001800180018001800BD
:1065500018001800980FD818383018301830183034
:1065600018301830183018301830183018307EFCB9
:10657000000000000000000000000000000000001B
:106580000000000000008003800380030000000082
:1065900000000001F801800180018001800180017C
:1065A0008001800180018001800180018001F81F4D
:1065B00000000000000000000000000000000000DB
:1065C0000000000000000038003800380000000023
:1065D00000000010801F0018001800180018001894
:1065E00000180018001800180018001800180018EB
:1065F00000180018180C1806F00300000000000036
:106600000000000010001E001800180018001800FC
:1066100018001800183E180C1806180318019801E5
:10662000D801380318071806180C181C18187E7C97
:10663000000000000000000000000000000000005A
:10664000000000000001F80180018001800180014C
:106650008001800180018001800180018001800132
:106660008001800180018001800180018001F81F8C
:10667000000000000000000000000000000000001A
:10668000000000000000000000000000000000000A
:1066900000000800EE1C9C338C318C318C318C3125
:1066A0008C318C318C318C318C318C318C31DE7B66
:1066B00000000000000000000000000000000000DA
:1066C00000000000000000000000000000000000CA
:1066D000000010001E0FD81838301830183018304D
:1066E00018301830183018301830183018307EFC38
:1066F000000000000000000000000000000000009A
:106700000000000000000000000000000000000089
:1067100000000000C007701C103018300C600C60C6
:106720000C600C600C600C60183018303018C0071A
:106730000000000000000000000000000000000059
:106740000000000000000000000000000000000049
:10675000000010009E0F581838301820186018607C
:10676000186018601860186018303830781898076A
:1067700018001800180018007E000000000000003B
:106780000000000000000000000000000000000009
:1067900000000000C023303C183818300C300C309A
:1067A0000C300C300C300C3008301838303CE033F2
:1067B000003000300030003000FC0000000000001D
:1067C00000000000000000000000000000000000C9
:1067D000000060007E3C60666061E000E0006000F8
:1067E0006000600060006000600060006000FE0704
:1067F0000000000000000000000000000000000099
:106800000000000000000000000000000000000088
:1068100000000000E0273038183018201800700001
:10682000E003800F001C043004300C301C18EC0F07
:106830000000000000000000000000000000000058
:1068400000000000000000000000800080008000C8
:10685000C000E000FC1FC000C000C000C000C000BD
:10686000C000C000C000C000C020C0208011000FC8
:106870000000000000000000000000000000000018
:106880000000000000000000000000000000000008
:10689000000010201E3C1830183018301830183006
:1068A00018301830183018301830183830F4E01319
:1068B00000000000000000000000000000000000D8
:1068C00000000000000000000000000000000000C8
:1068D000000000007E3C1818180838083004300406
:1068E000700260026002E001C001C001C0008000CF
:1068F0000000000000000000000000000000000098
:106900000000000000000000000000000000000087
:1069100000000000DFF78E630C238C238C23981378
:10692000981358165816700E700E700E200420041E
:106930000000000000000000000000000000000057
:106940000000000000000000000000000000000047
:1069500000000000FC3E70087004E004C002C001AA
:106960008003800340076006200C100C18183E7E40
:106970000000000000000000000000000000000017
:106980000000000000000000000000000000000007
:10699000000000007E7C1818180830083008300409
:1069A00060046004C002C002C00280018001800156
:1069B0008000800080004C003C00000000000000CF
:1069C00000000000000000000000000000000000C7
:1069D00000000000FC1F0C0C040E040600038003E2
:1069E0008001C000E0007020302038301C18FC1FEF
:1069F0000000000000000000000000000000000097
:106A00000030000800040004000400040004000436
:106A100000040004000400040002800100020004DD
:106A20000004000400040004000400040004000446
:106A30000004000400080030000000010001000113
:106A4000000100010001000100010001000100013E
:106A5000000100010001000100010001000100012E
:106A6000000100010001000100010001000100011E
:106A70000001000100010001000100000000000011
:106A80000C0010002000200020002000200020002A
:106A90002000200020002000400080014000200055
:106AA00020002000200020002000200020002000E6
:106AB0002000200010000C00000000003800C4007E
:106AC000864002610022001C00000000000000005F
:106AD00000000000000000000000000000000000B6
:106AE00000000000000000000000000000000000A6
:106AF00000000000000000000000D6D020002000B0
:106B00002000FE03220222022202FE0322022000B3
:106B100020002000BEB0FC010401FC010401FC01C6
:106B20002000FF070401FC01200024013202D4B040
:106B3000FE070204FA0402040204FE055204520491
:106B40004A0586050204FE07B5E710001000FF01A4
:106B500011011101FF0111011101FF0111041004C4
:106B6000E007D7D30000FC01800040002000200097
:106B7000FF0720002000200020003800D6D0800031
:106B8000800080008000FC1F84108410841084101A
:106B90008410FC1F84108000800080008000BEB044
:106BA000F80F0808F80F0808F80F8000FF7F0000B2
:106BB000F80F08080808F80F80008410A220400091
:106BC000D4B00000FE3F0220F22702200220FA2F5C
:106BD000222122212221122912290A2E0220FE3FDF
:106BE0000220B5E7800080008000FC1F8410841024
:106BF0008410FC1F841084108410FC1F845080407B
:106C00008040007FD7D30000FE1F00080004000270
:106C100080018000FF7F8000800080008000800075
:106C20008000A0004000D6D0000000000000001846
:106C300000000800000800000800080818F8FF1FFE
:106C40001808181808181808181808181808181814
:106C50000818F8FF1F0808080008000008000008CE
:106C600000000800001800001800001800000000D4
:106C7000BEB0000000000000400006C0FF0740005A
:106C800006C0FF07400006C0FF07400802003000B2
:106C9000FEFF3F000000C0FF07C00002C00002C0AE
:106CA0000002C0FF0380100080110160100E301040
:106CB000180C1E30001C00000000D4B000000000C2
:106CC0000000080030F8FF1F08001008C010083F3F
:106CD00010080010080010080013C8FF1008221048
:106CE00008221008221008221008211208211488F6
:106CF000601648C013280010080010F8FF1F080095
:106D000010000000B5E700000000000000180000BF
:106D10000800000800000800F0FF0F100804100829
:106D200004100804100804F0FF07100804100804F9
:106D3000100804100804F0FF0710080000081000F5
:106D4000081000082000183000F01F000000D7D302
:106D5000000000000000000004F0FF0F000006002B
:106D6000000100C0000028000018000018000018F2
:106D700030FEFF7F00180000180000180000180007
:106D8000001800001800001800001800001800008B
:106D90001F00000C00000000D6D000000000000022
:106DA00000000080000000800100008001000080E1
:106DB000010000800100008001001080010CF0FF44
:106DC000FF0F3080010430800104308001043080E6
:106DD00001043080010430800104308001043080DF
:106DE0000104F0FFFF0730800104308001040080BF
:106DF000010000800100008001000080010000808F
:106E0000010000800100008001000080010000807E
:106E100001000080000000000000BEB00000000083
:106E200000000000000000000001800100FFFF01E1
:106E3000000380010003800100FFFF0100038001C7
:106E40000003800100FFFF010081810000000300BA
:106E50000000031CFCFFFF3F000040000003C001D6
:106E600000FFFF010003C0000003C0000003C000DA
:106E700000FFFF000001410000040100000E71004E
:106E800000078101800101076000010E1898011CB4
:106E900004E0011800C0000000000000D4B00000B1
:106EA00000000000000000000008F0FFFF1F30009D
:106EB000000C3000000C3000100C30FE3F0C300491
:106EC000000C3000000C3000000C3000000C3000D2
:106ED000C00CF0FFFF0D3030060E3030060C3010C5
:106EE000060C3010060C3010060C3018860C3018CA
:106EF000860C3008060D300C860D3006EE0F300281
:106F0000FC0D3001000CF000000C3000000CF0FF14
:106F1000FF0F3000000C1000000400000000B5E777
:106F2000000000000000000000C0000000C00100E0
:106F300000C0000000C0000000C0000000C0000051
:106F4000E0FFFF0360C0000360C0000360C00003F7
:106F500060C0000360C0000360C00003E0FFFF03E7
:106F600060C0000360C0000360C0000360C0000395
:106F700060C00003E0FFFF0360C0000160C00000CC
:106F800000C0000800C0001000C0001000C00018C1
:106F900000C001380080FF1F00000000000000005A
:106FA000D7D3000000000000000000000000000037
:106FB0000003C0FFFF07000080070000C0000000C2
:106FC00060000000180000000C000080030000803A
:106FD000030000800100008001080080011CFCFF0C
:106FE000FF3F008001000080010000800100008060
:106FF000010000800100008001000080010000808D
:10700000010000800100008001000080010000807C
:10701000010000FC010000E0000000400000000052
:107020000000000044700008000000203000000054
:10703000C401000874700008300000202807000018
:10704000E0010008007A030A0000000000000000D0
:107050000102030406070809000000000000000008
:1070600000000000000001020304010203040607FF
:04707000080900000B
:040000050800018965
:00000001FF
