Component: ARM Compiler 5.06 update 6 (build 750) Tool: armlink [4d35ed]

==============================================================================

Section Cross References

    main.o(.text) refers to delay.o(.text) for delay_init
    main.o(.text) refers to led.o(.text) for LED_Init
    main.o(.text) refers to lcd_init.o(.text) for LCD_Init
    main.o(.text) refers to lcd.o(.text) for LCD_Fill
    main.o(.text) refers to stm32f0xx_gpio.o(.text) for GPIO_ResetBits
    main.o(.text) refers to f2d.o(.text) for __aeabi_f2d
    main.o(.text) refers to dadd.o(.text) for __aeabi_dadd
    main.o(.text) refers to d2f.o(.text) for __aeabi_d2f
    main.o(.text) refers to main.o(.constdata) for gImage_1
    system_stm32f0xx.o(.text) refers to uidiv.o(.text) for __aeabi_uidivmod
    system_stm32f0xx.o(.text) refers to system_stm32f0xx.o(.data) for SystemCoreClock
    startup_stm32f0xx.o(RESET) refers to startup_stm32f0xx.o(STACK) for __initial_sp
    startup_stm32f0xx.o(RESET) refers to startup_stm32f0xx.o(.text) for Reset_Handler
    startup_stm32f0xx.o(RESET) refers to stm32f0xx_it.o(.text) for NMI_Handler
    startup_stm32f0xx.o(.text) refers to system_stm32f0xx.o(.text) for SystemInit
    startup_stm32f0xx.o(.text) refers to entry.o(.ARM.Collect$$$$00000000) for __main
    led.o(.text) refers to stm32f0xx_rcc.o(.text) for RCC_AHBPeriphClockCmd
    led.o(.text) refers to stm32f0xx_gpio.o(.text) for GPIO_Init
==============================================================================

Removing Unused input sections from the image.

    Removing main.o(.emb_text), (8 bytes).
    Removing stm32f0xx_it.o(.emb_text), (8 bytes).
    Removing system_stm32f0xx.o(.emb_text), (8 bytes).
    Removing startup_stm32f0xx.o(HEAP), (512 bytes).
    Removing led.o(.emb_text), (8 bytes).
    Removing lcd_init.o(.emb_text), (8 bytes).
    Removing lcd.o(.emb_text), (8 bytes).
    Removing sys.o(.emb_text), (8 bytes).
    Removing delay.o(.emb_text), (8 bytes).
    Removing stm32f0xx_gpio.o(.emb_text), (8 bytes).
    Removing stm32f0xx_rcc.o(.emb_text), (8 bytes).
    Removing stm32f0xx_misc.o(.emb_text), (8 bytes).
    Removing stm32f0xx_usart.o(.emb_text), (8 bytes).
    Removing stm32f0xx_usart.o(.text), (1396 bytes).

14 unused section(s) (total 2004 bytes) removed from the image.

==============================================================================

Image Symbol Table

    Local Symbols

    Symbol Name                              Value     Ov Type        Size  Object(Section)

    ../clib/microlib/division.c              0x00000000   Number         0  idiv.o ABSOLUTE
    ../clib/microlib/division.c              0x00000000   Number         0  uidiv.o ABSOLUTE
    ../clib/microlib/init/entry.s            0x00000000   Number         0  entry5.o ABSOLUTE
    ../clib/microlib/init/entry.s            0x00000000   Number         0  entry10b.o ABSOLUTE
    ../clib/microlib/init/entry.s            0x00000000   Number         0  entry.o ABSOLUTE
    ../clib/microlib/init/entry.s            0x00000000   Number         0  entry2.o ABSOLUTE
    ../clib/microlib/init/entry.s            0x00000000   Number         0  entry11b.o ABSOLUTE
    ../clib/microlib/init/entry.s            0x00000000   Number         0  entry10a.o ABSOLUTE
    ../clib/microlib/init/entry.s            0x00000000   Number         0  entry8a.o ABSOLUTE
    ../clib/microlib/init/entry.s            0x00000000   Number         0  entry7a.o ABSOLUTE
    ../clib/microlib/init/entry.s            0x00000000   Number         0  entry8b.o ABSOLUTE
    ../clib/microlib/init/entry.s            0x00000000   Number         0  entry9b.o ABSOLUTE
    ../clib/microlib/init/entry.s            0x00000000   Number         0  entry11a.o ABSOLUTE
    ../clib/microlib/init/entry.s            0x00000000   Number         0  entry9a.o ABSOLUTE
    ../clib/microlib/init/entry.s            0x00000000   Number         0  entry7b.o ABSOLUTE
    ../clib/microlib/longlong.c              0x00000000   Number         0  llsshr.o ABSOLUTE
    ../clib/microlib/longlong.c              0x00000000   Number         0  llushr.o ABSOLUTE
    ../clib/microlib/longlong.c              0x00000000   Number         0  llshl.o ABSOLUTE
    ../clib/microlib/stubs.s                 0x00000000   Number         0  iusefp.o ABSOLUTE
    ../fplib/microlib/d2f.c                  0x00000000   Number         0  d2f.o ABSOLUTE
    ../fplib/microlib/f2d.c                  0x00000000   Number         0  f2d.o ABSOLUTE
    ../fplib/microlib/fpadd.c                0x00000000   Number         0  dadd.o ABSOLUTE
    ../fplib/microlib/fpepilogue.c           0x00000000   Number         0  fepilogue.o ABSOLUTE
    ../fplib/microlib/fpepilogue.c           0x00000000   Number         0  depilogue.o ABSOLUTE
    ../fplib/microlib/fpfix.c                0x00000000   Number         0  ffixui.o ABSOLUTE
    ../fplib/microlib/fpmul.c                0x00000000   Number         0  fmul.o ABSOLUTE
    ..\CORE\startup_stm32f0xx.s              0x00000000   Number         0  startup_stm32f0xx.o ABSOLUTE
    ..\HARDWARE\LCD\lcd.c                    0x00000000   Number         0  lcd.o ABSOLUTE
    ..\HARDWARE\LCD\lcd_init.c               0x00000000   Number         0  lcd_init.o ABSOLUTE
    ..\HARDWARE\LED\led.c                    0x00000000   Number         0  led.o ABSOLUTE
    ..\STM32F03x_FWLib\src\stm32f0xx_gpio.c  0x00000000   Number         0  stm32f0xx_gpio.o ABSOLUTE
    ..\STM32F03x_FWLib\src\stm32f0xx_misc.c  0x00000000   Number         0  stm32f0xx_misc.o ABSOLUTE
    ..\STM32F03x_FWLib\src\stm32f0xx_rcc.c   0x00000000   Number         0  stm32f0xx_rcc.o ABSOLUTE
    ..\STM32F03x_FWLib\src\stm32f0xx_usart.c 0x00000000   Number         0  stm32f0xx_usart.o ABSOLUTE
    ..\SYSTEM\delay\delay.c                  0x00000000   Number         0  delay.o ABSOLUTE
    ..\SYSTEM\sys\sys.c                      0x00000000   Number         0  sys.o ABSOLUTE
    ..\\HARDWARE\\LCD\\lcd.c                 0x00000000   Number         0  lcd.o ABSOLUTE
    ..\\HARDWARE\\LCD\\lcd_init.c            0x00000000   Number         0  lcd_init.o ABSOLUTE
    ..\\HARDWARE\\LED\\led.c                 0x00000000   Number         0  led.o ABSOLUTE
    ..\\STM32F03x_FWLib\\src\\stm32f0xx_gpio.c 0x00000000   Number         0  stm32f0xx_gpio.o ABSOLUTE
    ..\\STM32F03x_FWLib\\src\\stm32f0xx_misc.c 0x00000000   Number         0  stm32f0xx_misc.o ABSOLUTE
    ..\\STM32F03x_FWLib\\src\\stm32f0xx_rcc.c 0x00000000   Number         0  stm32f0xx_rcc.o ABSOLUTE
    ..\\STM32F03x_FWLib\\src\\stm32f0xx_usart.c 0x00000000   Number         0  stm32f0xx_usart.o ABSOLUTE
    ..\\SYSTEM\\delay\\delay.c               0x00000000   Number         0  delay.o ABSOLUTE
    ..\\SYSTEM\\sys\\sys.c                   0x00000000   Number         0  sys.o ABSOLUTE
    dc.s                                     0x00000000   Number         0  dc.o ABSOLUTE
    handlers.s                               0x00000000   Number         0  handlers.o ABSOLUTE
    init.s                                   0x00000000   Number         0  init.o ABSOLUTE
    main.c                                   0x00000000   Number         0  main.o ABSOLUTE
    main.c                                   0x00000000   Number         0  main.o ABSOLUTE
    stm32f0xx_it.c                           0x00000000   Number         0  stm32f0xx_it.o ABSOLUTE
    stm32f0xx_it.c                           0x00000000   Number         0  stm32f0xx_it.o ABSOLUTE
    system_stm32f0xx.c                       0x00000000   Number         0  system_stm32f0xx.o ABSOLUTE
    system_stm32f0xx.c                       0x00000000   Number         0  system_stm32f0xx.o ABSOLUTE
    RESET                                    0x08000000   Section      192  startup_stm32f0xx.o(RESET)
    .ARM.Collect$$$$00000000                 0x080000c0   Section        0  entry.o(.ARM.Collect$$$$00000000)
    .ARM.Collect$$$$00000001                 0x080000c0   Section        4  entry2.o(.ARM.Collect$$$$00000001)
    .ARM.Collect$$$$00000004                 0x080000c4   Section        4  entry5.o(.ARM.Collect$$$$00000004)
    .ARM.Collect$$$$00000008                 0x080000c8   Section        0  entry7b.o(.ARM.Collect$$$$00000008)
    .ARM.Collect$$$$0000000A                 0x080000c8   Section        0  entry8b.o(.ARM.Collect$$$$0000000A)
    .ARM.Collect$$$$0000000B                 0x080000c8   Section        8  entry9a.o(.ARM.Collect$$$$0000000B)
    .ARM.Collect$$$$0000000D                 0x080000d0   Section        0  entry10a.o(.ARM.Collect$$$$0000000D)
    .ARM.Collect$$$$0000000F                 0x080000d0   Section        0  entry11a.o(.ARM.Collect$$$$0000000F)
    .ARM.Collect$$$$00002712                 0x080000d0   Section        4  entry2.o(.ARM.Collect$$$$00002712)
    __lit__00000000                          0x080000d0   Data           4  entry2.o(.ARM.Collect$$$$00002712)
    .text                                    0x080000d4   Section        0  main.o(.text)
    .text                                    0x08000260   Section        0  stm32f0xx_it.o(.text)
    .text                                    0x0800026c   Section        0  system_stm32f0xx.o(.text)
    SetSysClock                              0x0800026d   Thumb Code   206  system_stm32f0xx.o(.text)
    .text                                    0x08000464   Section       28  startup_stm32f0xx.o(.text)
    .text                                    0x08000480   Section        0  led.o(.text)
    .text                                    0x080004b6   Section        0  lcd_init.o(.text)
    .text                                    0x08000758   Section        0  lcd.o(.text)
    .text                                    0x08001170   Section        0  delay.o(.text)
    .text                                    0x08001244   Section        0  stm32f0xx_gpio.o(.text)
    .text                                    0x08001434   Section        0  stm32f0xx_rcc.o(.text)
    .text                                    0x08001a2c   Section        0  stm32f0xx_misc.o(.text)
    .text                                    0x08001ae0   Section        0  uidiv.o(.text)
    .text                                    0x08001b0c   Section        0  idiv.o(.text)
    .text                                    0x08001b34   Section        0  fmul.o(.text)
    .text                                    0x08001bb0   Section        0  dadd.o(.text)
    .text                                    0x08001d14   Section        0  ffixui.o(.text)
    .text                                    0x08001d3c   Section        0  f2d.o(.text)
    .text                                    0x08001d64   Section        0  d2f.o(.text)
    .text                                    0x08001d9c   Section        0  llshl.o(.text)
    .text                                    0x08001dbc   Section        0  llsshr.o(.text)
    .text                                    0x08001de2   Section        0  iusefp.o(.text)
    .text                                    0x08001de2   Section        0  fepilogue.o(.text)
    .text                                    0x08001e64   Section        0  depilogue.o(.text)
    .text                                    0x08001f24   Section       36  init.o(.text)
    .text                                    0x08001f48   Section        0  llushr.o(.text)
    i.__ARM_clz                              0x08001f6a   Section        0  depilogue.o(i.__ARM_clz)
    i.__scatterload_copy                     0x08001f98   Section       14  handlers.o(i.__scatterload_copy)
    i.__scatterload_null                     0x08001fa6   Section        2  handlers.o(i.__scatterload_null)
    i.__scatterload_zeroinit                 0x08001fa8   Section       14  handlers.o(i.__scatterload_zeroinit)
    .constdata                               0x08001fb6   Section     3200  main.o(.constdata)
    .constdata                               0x08002c36   Section    14620  lcd.o(.constdata)
    .data                                    0x20000000   Section       20  system_stm32f0xx.o(.data)
    .data                                    0x20000014   Section        4  delay.o(.data)
    fac_us                                   0x20000014   Data           1  delay.o(.data)
    fac_ms                                   0x20000016   Data           2  delay.o(.data)
    .data                                    0x20000018   Section       16  stm32f0xx_rcc.o(.data)
    APBAHBPrescTable                         0x20000018   Data          16  stm32f0xx_rcc.o(.data)
    STACK                                    0x20000028   Section     1024  startup_stm32f0xx.o(STACK)

    Global Symbols

    Symbol Name                              Value     Ov Type        Size  Object(Section)

    BuildAttributes$$THM_ISAv3M$S$PE$A:L22$X:L11$S22$IEEE1$IW$USESV6$~STKCKD$USESV7$~SHL$OTIME$ROPI$EBA8$MICROLIB$REQ8$PRES8$EABIv2 0x00000000   Number         0  anon$$obj.o ABSOLUTE
    __ARM_use_no_argv                        0x00000000   Number         0  main.o ABSOLUTE
    __cpp_initialize__aeabi_                  - Undefined Weak Reference
    __cxa_finalize                            - Undefined Weak Reference
    __decompress                              - Undefined Weak Reference
    _clock_init                               - Undefined Weak Reference
    _microlib_exit                            - Undefined Weak Reference
    __Vectors_Size                           0x000000c0   Number         0  startup_stm32f0xx.o ABSOLUTE
    __Vectors                                0x08000000   Data           4  startup_stm32f0xx.o(RESET)
    __Vectors_End                            0x080000c0   Data           0  startup_stm32f0xx.o(RESET)
    __main                                   0x080000c1   Thumb Code     0  entry.o(.ARM.Collect$$$$00000000)
    _main_stk                                0x080000c1   Thumb Code     0  entry2.o(.ARM.Collect$$$$00000001)
    _main_scatterload                        0x080000c5   Thumb Code     0  entry5.o(.ARM.Collect$$$$00000004)
    __main_after_scatterload                 0x080000c9   Thumb Code     0  entry5.o(.ARM.Collect$$$$00000004)
    _main_clock                              0x080000c9   Thumb Code     0  entry7b.o(.ARM.Collect$$$$00000008)
    _main_cpp_init                           0x080000c9   Thumb Code     0  entry8b.o(.ARM.Collect$$$$0000000A)
    _main_init                               0x080000c9   Thumb Code     0  entry9a.o(.ARM.Collect$$$$0000000B)
    __rt_final_cpp                           0x080000d1   Thumb Code     0  entry10a.o(.ARM.Collect$$$$0000000D)
    __rt_final_exit                          0x080000d1   Thumb Code     0  entry11a.o(.ARM.Collect$$$$0000000F)
    main                                     0x080000d5   Thumb Code   332  main.o(.text)
    NMI_Handler                              0x08000261   Thumb Code     2  stm32f0xx_it.o(.text)
    HardFault_Handler                        0x08000263   Thumb Code     4  stm32f0xx_it.o(.text)
    SVC_Handler                              0x08000267   Thumb Code     2  stm32f0xx_it.o(.text)
    PendSV_Handler                           0x08000269   Thumb Code     2  stm32f0xx_it.o(.text)
    SysTick_Handler                          0x0800026b   Thumb Code     2  stm32f0xx_it.o(.text)
    SystemInit                               0x0800033b   Thumb Code   110  system_stm32f0xx.o(.text)
    SystemCoreClockUpdate                    0x080003a9   Thumb Code   154  system_stm32f0xx.o(.text)
    Reset_Handler                            0x08000465   Thumb Code     8  startup_stm32f0xx.o(.text)
    ADC1_COMP_IRQHandler                     0x08000477   Thumb Code     0  startup_stm32f0xx.o(.text)
    CEC_IRQHandler                           0x08000477   Thumb Code     0  startup_stm32f0xx.o(.text)
    DMA1_Channel1_IRQHandler                 0x08000477   Thumb Code     0  startup_stm32f0xx.o(.text)
    DMA1_Channel2_3_IRQHandler               0x08000477   Thumb Code     0  startup_stm32f0xx.o(.text)
    DMA1_Channel4_5_IRQHandler               0x08000477   Thumb Code     0  startup_stm32f0xx.o(.text)
    EXTI0_1_IRQHandler                       0x08000477   Thumb Code     0  startup_stm32f0xx.o(.text)
    EXTI2_3_IRQHandler                       0x08000477   Thumb Code     0  startup_stm32f0xx.o(.text)
    EXTI4_15_IRQHandler                      0x08000477   Thumb Code     0  startup_stm32f0xx.o(.text)
    FLASH_IRQHandler                         0x08000477   Thumb Code     0  startup_stm32f0xx.o(.text)
    I2C1_IRQHandler                          0x08000477   Thumb Code     0  startup_stm32f0xx.o(.text)
    I2C2_IRQHandler                          0x08000477   Thumb Code     0  startup_stm32f0xx.o(.text)
    PVD_IRQHandler                           0x08000477   Thumb Code     0  startup_stm32f0xx.o(.text)
    RCC_IRQHandler                           0x08000477   Thumb Code     0  startup_stm32f0xx.o(.text)
    RTC_IRQHandler                           0x08000477   Thumb Code     0  startup_stm32f0xx.o(.text)
    SPI1_IRQHandler                          0x08000477   Thumb Code     0  startup_stm32f0xx.o(.text)
    SPI2_IRQHandler                          0x08000477   Thumb Code     0  startup_stm32f0xx.o(.text)
    TIM14_IRQHandler                         0x08000477   Thumb Code     0  startup_stm32f0xx.o(.text)
    TIM15_IRQHandler                         0x08000477   Thumb Code     0  startup_stm32f0xx.o(.text)
    TIM16_IRQHandler                         0x08000477   Thumb Code     0  startup_stm32f0xx.o(.text)
    TIM17_IRQHandler                         0x08000477   Thumb Code     0  startup_stm32f0xx.o(.text)
    TIM1_BRK_UP_TRG_COM_IRQHandler           0x08000477   Thumb Code     0  startup_stm32f0xx.o(.text)
    TIM1_CC_IRQHandler                       0x08000477   Thumb Code     0  startup_stm32f0xx.o(.text)
    TIM2_IRQHandler                          0x08000477   Thumb Code     0  startup_stm32f0xx.o(.text)
    TIM3_IRQHandler                          0x08000477   Thumb Code     0  startup_stm32f0xx.o(.text)
    TIM6_DAC_IRQHandler                      0x08000477   Thumb Code     0  startup_stm32f0xx.o(.text)
    TS_IRQHandler                            0x08000477   Thumb Code     0  startup_stm32f0xx.o(.text)
    USART1_IRQHandler                        0x08000477   Thumb Code     0  startup_stm32f0xx.o(.text)
    USART2_IRQHandler                        0x08000477   Thumb Code     0  startup_stm32f0xx.o(.text)
    WWDG_IRQHandler                          0x08000477   Thumb Code     0  startup_stm32f0xx.o(.text)
    LED_Init                                 0x08000481   Thumb Code    54  led.o(.text)
    LCD_GPIO_Init                            0x080004b7   Thumb Code    50  lcd_init.o(.text)
    LCD_Writ_Bus                             0x080004e9   Thumb Code    92  lcd_init.o(.text)
    LCD_WR_DATA8                             0x08000545   Thumb Code    12  lcd_init.o(.text)
    LCD_WR_DATA                              0x08000551   Thumb Code    20  lcd_init.o(.text)
    LCD_WR_REG                               0x08000565   Thumb Code    32  lcd_init.o(.text)
    LCD_Address_Set                          0x08000585   Thumb Code    58  lcd_init.o(.text)
    LCD_Init                                 0x080005bf   Thumb Code   410  lcd_init.o(.text)
    LCD_Fill                                 0x08000759   Thumb Code    62  lcd.o(.text)
    LCD_DrawPoint                            0x08000797   Thumb Code    28  lcd.o(.text)
    LCD_DrawLine                             0x080007b3   Thumb Code   174  lcd.o(.text)
    LCD_DrawRectangle                        0x08000861   Thumb Code    72  lcd.o(.text)
    Draw_Circle                              0x080008a9   Thumb Code   124  lcd.o(.text)
    LCD_ShowChinese32x32                     0x08000925   Thumb Code   286  lcd.o(.text)
    LCD_ShowChinese24x24                     0x08000a43   Thumb Code   286  lcd.o(.text)
    LCD_ShowChinese16x16                     0x08000b61   Thumb Code   286  lcd.o(.text)
    LCD_ShowChinese12x12                     0x08000c7f   Thumb Code   306  lcd.o(.text)
    LCD_ShowChinese                          0x08000db1   Thumb Code   132  lcd.o(.text)
    LCD_ShowChar                             0x08000e35   Thumb Code   312  lcd.o(.text)
    LCD_ShowString                           0x08000f6d   Thumb Code    56  lcd.o(.text)
    mypow                                    0x08000fa5   Thumb Code    26  lcd.o(.text)
    LCD_ShowIntNum                           0x08000fbf   Thumb Code   158  lcd.o(.text)
    LCD_ShowFloatNum1                        0x0800105d   Thumb Code   162  lcd.o(.text)
    LCD_ShowPicture                          0x080010ff   Thumb Code    94  lcd.o(.text)
    delay_init                               0x08001171   Thumb Code    44  delay.o(.text)
    delay_us                                 0x0800119d   Thumb Code    74  delay.o(.text)
    delay_ms                                 0x080011e7   Thumb Code    74  delay.o(.text)
    GPIO_DeInit                              0x08001245   Thumb Code   132  stm32f0xx_gpio.o(.text)
    GPIO_Init                                0x080012c9   Thumb Code   144  stm32f0xx_gpio.o(.text)
    GPIO_StructInit                          0x08001359   Thumb Code    20  stm32f0xx_gpio.o(.text)
    GPIO_PinLockConfig                       0x0800136d   Thumb Code    34  stm32f0xx_gpio.o(.text)
    GPIO_ReadInputDataBit                    0x0800138f   Thumb Code    20  stm32f0xx_gpio.o(.text)
    GPIO_ReadInputData                       0x080013a3   Thumb Code     6  stm32f0xx_gpio.o(.text)
    GPIO_ReadOutputDataBit                   0x080013a9   Thumb Code    20  stm32f0xx_gpio.o(.text)
    GPIO_ReadOutputData                      0x080013bd   Thumb Code     6  stm32f0xx_gpio.o(.text)
    GPIO_SetBits                             0x080013c3   Thumb Code     4  stm32f0xx_gpio.o(.text)
    GPIO_ResetBits                           0x080013c7   Thumb Code     4  stm32f0xx_gpio.o(.text)
    GPIO_WriteBit                            0x080013cb   Thumb Code    12  stm32f0xx_gpio.o(.text)
    GPIO_Write                               0x080013d7   Thumb Code     4  stm32f0xx_gpio.o(.text)
    GPIO_PinAFConfig                         0x080013db   Thumb Code    68  stm32f0xx_gpio.o(.text)
    RCC_DeInit                               0x08001435   Thumb Code   104  stm32f0xx_rcc.o(.text)
    RCC_HSEConfig                            0x0800149d   Thumb Code    12  stm32f0xx_rcc.o(.text)
    RCC_GetFlagStatus                        0x080014a9   Thumb Code    68  stm32f0xx_rcc.o(.text)
    RCC_WaitForHSEStartUp                    0x080014ed   Thumb Code    60  stm32f0xx_rcc.o(.text)
    RCC_AdjustHSICalibrationValue            0x08001529   Thumb Code    26  stm32f0xx_rcc.o(.text)
    RCC_HSICmd                               0x08001543   Thumb Code    32  stm32f0xx_rcc.o(.text)
    RCC_AdjustHSI14CalibrationValue          0x08001563   Thumb Code    26  stm32f0xx_rcc.o(.text)
    RCC_HSI14Cmd                             0x0800157d   Thumb Code    32  stm32f0xx_rcc.o(.text)
    RCC_HSI14ADCRequestCmd                   0x0800159d   Thumb Code    32  stm32f0xx_rcc.o(.text)
    RCC_LSEConfig                            0x080015bd   Thumb Code    34  stm32f0xx_rcc.o(.text)
    RCC_LSEDriveConfig                       0x080015df   Thumb Code    22  stm32f0xx_rcc.o(.text)
    RCC_LSICmd                               0x080015f5   Thumb Code    32  stm32f0xx_rcc.o(.text)
    RCC_PLLConfig                            0x08001615   Thumb Code    30  stm32f0xx_rcc.o(.text)
    RCC_PLLCmd                               0x08001633   Thumb Code    36  stm32f0xx_rcc.o(.text)
    RCC_PREDIV1Config                        0x08001657   Thumb Code    24  stm32f0xx_rcc.o(.text)
    RCC_ClockSecuritySystemCmd               0x0800166f   Thumb Code    36  stm32f0xx_rcc.o(.text)
    RCC_MCOConfig                            0x08001693   Thumb Code     6  stm32f0xx_rcc.o(.text)
    RCC_SYSCLKConfig                         0x08001699   Thumb Code    24  stm32f0xx_rcc.o(.text)
    RCC_GetSYSCLKSource                      0x080016b1   Thumb Code    10  stm32f0xx_rcc.o(.text)
    RCC_HCLKConfig                           0x080016bb   Thumb Code    28  stm32f0xx_rcc.o(.text)
    RCC_PCLKConfig                           0x080016d7   Thumb Code    30  stm32f0xx_rcc.o(.text)
    RCC_ADCCLKConfig                         0x080016f5   Thumb Code    52  stm32f0xx_rcc.o(.text)
    RCC_CECCLKConfig                         0x08001729   Thumb Code    22  stm32f0xx_rcc.o(.text)
    RCC_I2CCLKConfig                         0x0800173f   Thumb Code    22  stm32f0xx_rcc.o(.text)
    RCC_USARTCLKConfig                       0x08001755   Thumb Code    22  stm32f0xx_rcc.o(.text)
    RCC_GetClocksFreq                        0x0800176b   Thumb Code   368  stm32f0xx_rcc.o(.text)
    RCC_RTCCLKConfig                         0x080018db   Thumb Code    12  stm32f0xx_rcc.o(.text)
    RCC_RTCCLKCmd                            0x080018e7   Thumb Code    36  stm32f0xx_rcc.o(.text)
    RCC_BackupResetCmd                       0x0800190b   Thumb Code    36  stm32f0xx_rcc.o(.text)
    RCC_AHBPeriphClockCmd                    0x0800192f   Thumb Code    28  stm32f0xx_rcc.o(.text)
    RCC_APB2PeriphClockCmd                   0x0800194b   Thumb Code    28  stm32f0xx_rcc.o(.text)
    RCC_APB1PeriphClockCmd                   0x08001967   Thumb Code    28  stm32f0xx_rcc.o(.text)
    RCC_AHBPeriphResetCmd                    0x08001983   Thumb Code    28  stm32f0xx_rcc.o(.text)
    RCC_APB2PeriphResetCmd                   0x0800199f   Thumb Code    28  stm32f0xx_rcc.o(.text)
    RCC_APB1PeriphResetCmd                   0x080019bb   Thumb Code    28  stm32f0xx_rcc.o(.text)
    RCC_ITConfig                             0x080019d7   Thumb Code    28  stm32f0xx_rcc.o(.text)
    RCC_ClearFlag                            0x080019f3   Thumb Code    16  stm32f0xx_rcc.o(.text)
    RCC_GetITStatus                          0x08001a03   Thumb Code    22  stm32f0xx_rcc.o(.text)
    RCC_ClearITPendingBit                    0x08001a19   Thumb Code     6  stm32f0xx_rcc.o(.text)
    NVIC_Init                                0x08001a2d   Thumb Code   106  stm32f0xx_misc.o(.text)
    NVIC_SystemLPConfig                      0x08001a97   Thumb Code    28  stm32f0xx_misc.o(.text)
    SysTick_CLKSourceConfig                  0x08001ab3   Thumb Code    32  stm32f0xx_misc.o(.text)
    __aeabi_uidiv                            0x08001ae1   Thumb Code     0  uidiv.o(.text)
    __aeabi_uidivmod                         0x08001ae1   Thumb Code    44  uidiv.o(.text)
    __aeabi_idiv                             0x08001b0d   Thumb Code     0  idiv.o(.text)
    __aeabi_idivmod                          0x08001b0d   Thumb Code    40  idiv.o(.text)
    __aeabi_fmul                             0x08001b35   Thumb Code   122  fmul.o(.text)
    __aeabi_dadd                             0x08001bb1   Thumb Code   328  dadd.o(.text)
    __aeabi_dsub                             0x08001cf9   Thumb Code    12  dadd.o(.text)
    __aeabi_drsub                            0x08001d05   Thumb Code    12  dadd.o(.text)
    __aeabi_f2uiz                            0x08001d15   Thumb Code    40  ffixui.o(.text)
    __aeabi_f2d                              0x08001d3d   Thumb Code    40  f2d.o(.text)
    __aeabi_d2f                              0x08001d65   Thumb Code    56  d2f.o(.text)
    __aeabi_llsl                             0x08001d9d   Thumb Code    32  llshl.o(.text)
    _ll_shift_l                              0x08001d9d   Thumb Code     0  llshl.o(.text)
    __aeabi_lasr                             0x08001dbd   Thumb Code    38  llsshr.o(.text)
    _ll_sshift_r                             0x08001dbd   Thumb Code     0  llsshr.o(.text)
    __I$use$fp                               0x08001de3   Thumb Code     0  iusefp.o(.text)
    _float_round                             0x08001de3   Thumb Code    16  fepilogue.o(.text)
    _float_epilogue                          0x08001df3   Thumb Code   114  fepilogue.o(.text)
    _double_round                            0x08001e65   Thumb Code    26  depilogue.o(.text)
    _double_epilogue                         0x08001e7f   Thumb Code   164  depilogue.o(.text)
    __scatterload                            0x08001f25   Thumb Code    28  init.o(.text)
    __scatterload_rt2                        0x08001f25   Thumb Code     0  init.o(.text)
    __aeabi_llsr                             0x08001f49   Thumb Code    34  llushr.o(.text)
    _ll_ushift_r                             0x08001f49   Thumb Code     0  llushr.o(.text)
    __ARM_clz                                0x08001f6b   Thumb Code    46  depilogue.o(i.__ARM_clz)
    __scatterload_copy                       0x08001f99   Thumb Code    14  handlers.o(i.__scatterload_copy)
    __scatterload_null                       0x08001fa7   Thumb Code     2  handlers.o(i.__scatterload_null)
    __scatterload_zeroinit                   0x08001fa9   Thumb Code    14  handlers.o(i.__scatterload_zeroinit)
    gImage_1                                 0x08001fb6   Data        3200  main.o(.constdata)
    ascii_1206                               0x08002c36   Data        1140  lcd.o(.constdata)
    ascii_1608                               0x080030aa   Data        1520  lcd.o(.constdata)
    ascii_2412                               0x0800369a   Data        4560  lcd.o(.constdata)
    ascii_3216                               0x0800486a   Data        6080  lcd.o(.constdata)
    tfont12                                  0x0800602a   Data         130  lcd.o(.constdata)
    tfont16                                  0x080060ac   Data         170  lcd.o(.constdata)
    tfont24                                  0x08006156   Data         370  lcd.o(.constdata)
    tfont32                                  0x080062c8   Data         650  lcd.o(.constdata)
    Region$$Table$$Base                      0x08006554   Number         0  anon$$obj.o(Region$$Table)
    Region$$Table$$Limit                     0x08006574   Number         0  anon$$obj.o(Region$$Table)
    SystemCoreClock                          0x20000000   Data           4  system_stm32f0xx.o(.data)
    AHBPrescTable                            0x20000004   Data          16  system_stm32f0xx.o(.data)
    __initial_sp                             0x20000428   Data           0  startup_stm32f0xx.o(STACK)



==============================================================================

Memory Map of the image

  Image Entry point : 0x08000465

  Load Region LR_1 (Base: 0x08000000, Size: 0x0000659c, Max: 0xffffffff, ABSOLUTE)

    Execution Region ER_RO (Exec base: 0x08000000, Load base: 0x08000000, Size: 0x00006574, Max: 0xffffffff, ABSOLUTE)

    Exec Addr    Load Addr    Size         Type   Attr      Idx    E Section Name        Object

    0x08000000   0x08000000   0x000000c0   Data   RO          118    RESET               startup_stm32f0xx.o
    0x080000c0   0x080000c0   0x00000000   Code   RO          287  * .ARM.Collect$$$$00000000  mc_p.l(entry.o)
    0x080000c0   0x080000c0   0x00000004   Code   RO          304    .ARM.Collect$$$$00000001  mc_p.l(entry2.o)
    0x080000c4   0x080000c4   0x00000004   Code   RO          307    .ARM.Collect$$$$00000004  mc_p.l(entry5.o)
    0x080000c8   0x080000c8   0x00000000   Code   RO          309    .ARM.Collect$$$$00000008  mc_p.l(entry7b.o)
    0x080000c8   0x080000c8   0x00000000   Code   RO          311    .ARM.Collect$$$$0000000A  mc_p.l(entry8b.o)
    0x080000c8   0x080000c8   0x00000008   Code   RO          312    .ARM.Collect$$$$0000000B  mc_p.l(entry9a.o)
    0x080000d0   0x080000d0   0x00000000   Code   RO          314    .ARM.Collect$$$$0000000D  mc_p.l(entry10a.o)
    0x080000d0   0x080000d0   0x00000000   Code   RO          316    .ARM.Collect$$$$0000000F  mc_p.l(entry11a.o)
    0x080000d0   0x080000d0   0x00000004   Code   RO          305    .ARM.Collect$$$$00002712  mc_p.l(entry2.o)
    0x080000d4   0x080000d4   0x0000018c   Code   RO            2    .text               main.o
    0x08000260   0x08000260   0x0000000c   Code   RO           76    .text               stm32f0xx_it.o
    0x0800026c   0x0800026c   0x000001f8   Code   RO           95    .text               system_stm32f0xx.o
    0x08000464   0x08000464   0x0000001c   Code   RO          119  * .text               startup_stm32f0xx.o
    0x08000480   0x08000480   0x00000036   Code   RO          124    .text               led.o
    0x080004b6   0x080004b6   0x000002a2   Code   RO          156    .text               lcd_init.o
    0x08000758   0x08000758   0x00000a18   Code   RO          172    .text               lcd.o
    0x08001170   0x08001170   0x000000d4   Code   RO          204    .text               delay.o
    0x08001244   0x08001244   0x000001f0   Code   RO          222    .text               stm32f0xx_gpio.o
    0x08001434   0x08001434   0x000005f8   Code   RO          238    .text               stm32f0xx_rcc.o
    0x08001a2c   0x08001a2c   0x000000b4   Code   RO          256    .text               stm32f0xx_misc.o
    0x08001ae0   0x08001ae0   0x0000002c   Code   RO          290    .text               mc_p.l(uidiv.o)
    0x08001b0c   0x08001b0c   0x00000028   Code   RO          292    .text               mc_p.l(idiv.o)
    0x08001b34   0x08001b34   0x0000007a   Code   RO          294    .text               mf_p.l(fmul.o)
    0x08001bae   0x08001bae   0x00000002   PAD
    0x08001bb0   0x08001bb0   0x00000164   Code   RO          296    .text               mf_p.l(dadd.o)
    0x08001d14   0x08001d14   0x00000028   Code   RO          298    .text               mf_p.l(ffixui.o)
    0x08001d3c   0x08001d3c   0x00000028   Code   RO          300    .text               mf_p.l(f2d.o)
    0x08001d64   0x08001d64   0x00000038   Code   RO          302    .text               mf_p.l(d2f.o)
    0x08001d9c   0x08001d9c   0x00000020   Code   RO          318    .text               mc_p.l(llshl.o)
    0x08001dbc   0x08001dbc   0x00000026   Code   RO          320    .text               mc_p.l(llsshr.o)
    0x08001de2   0x08001de2   0x00000000   Code   RO          322    .text               mc_p.l(iusefp.o)
    0x08001de2   0x08001de2   0x00000082   Code   RO          323    .text               mf_p.l(fepilogue.o)
    0x08001e64   0x08001e64   0x000000be   Code   RO          325    .text               mf_p.l(depilogue.o)
    0x08001f22   0x08001f22   0x00000002   PAD
    0x08001f24   0x08001f24   0x00000024   Code   RO          329    .text               mc_p.l(init.o)
    0x08001f48   0x08001f48   0x00000022   Code   RO          331    .text               mc_p.l(llushr.o)
    0x08001f6a   0x08001f6a   0x0000002e   Code   RO          327    i.__ARM_clz         mf_p.l(depilogue.o)
    0x08001f98   0x08001f98   0x0000000e   Code   RO          335    i.__scatterload_copy  mc_p.l(handlers.o)
    0x08001fa6   0x08001fa6   0x00000002   Code   RO          336    i.__scatterload_null  mc_p.l(handlers.o)
    0x08001fa8   0x08001fa8   0x0000000e   Code   RO          337    i.__scatterload_zeroinit  mc_p.l(handlers.o)
    0x08001fb6   0x08001fb6   0x00000c80   Data   RO            3    .constdata          main.o
    0x08002c36   0x08002c36   0x0000391c   Data   RO          173    .constdata          lcd.o
    0x08006552   0x08006552   0x00000002   PAD
    0x08006554   0x08006554   0x00000020   Data   RO          333    Region$$Table       anon$$obj.o


    Execution Region ER_RW (Exec base: 0x20000000, Load base: 0x08006574, Size: 0x00000028, Max: 0xffffffff, ABSOLUTE)

    Exec Addr    Load Addr    Size         Type   Attr      Idx    E Section Name        Object

    0x20000000   0x08006574   0x00000014   Data   RW           96    .data               system_stm32f0xx.o
    0x20000014   0x08006588   0x00000004   Data   RW          205    .data               delay.o
    0x20000018   0x0800658c   0x00000010   Data   RW          239    .data               stm32f0xx_rcc.o


    Execution Region ER_ZI (Exec base: 0x20000028, Load base: 0x0800659c, Size: 0x00000400, Max: 0xffffffff, ABSOLUTE)

    Exec Addr    Load Addr    Size         Type   Attr      Idx    E Section Name        Object

    0x20000028        -       0x00000400   Zero   RW          116    STACK               startup_stm32f0xx.o


==============================================================================

Image component sizes


      Code (inc. data)   RO Data    RW Data    ZI Data      Debug   Object Name

       212         20          0          4          0       1079   delay.o
      2584         38      14620          0          0      10265   lcd.o
       674          0          0          0          0       1990   lcd_init.o
        54          0          0          0          0      84859   led.o
       396         64       3200          0          0      20350   main.o
        28          8        192          0       1024        632   startup_stm32f0xx.o
       496         22          0          0          0       3761   stm32f0xx_gpio.o
        12          0          0          0          0        799   stm32f0xx_it.o
       180         14          0          0          0       1376   stm32f0xx_misc.o
      1528         42          0         16          0       8630   stm32f0xx_rcc.o
       504         34          0         20          0       1663   system_stm32f0xx.o

    ----------------------------------------------------------------------
      6668        242      18046         40       1024     135404   Object Totals
         0          0         32          0          0          0   (incl. Generated)
         0          0          2          0          0          0   (incl. Padding)

    ----------------------------------------------------------------------

      Code (inc. data)   RO Data    RW Data    ZI Data      Debug   Library Member Name

         0          0          0          0          0          0   entry.o
         0          0          0          0          0          0   entry10a.o
         0          0          0          0          0          0   entry11a.o
         8          4          0          0          0          0   entry2.o
         4          0          0          0          0          0   entry5.o
         0          0          0          0          0          0   entry7b.o
         0          0          0          0          0          0   entry8b.o
         8          4          0          0          0          0   entry9a.o
        30          0          0          0          0          0   handlers.o
        40          0          0          0          0         72   idiv.o
        36          8          0          0          0         68   init.o
         0          0          0          0          0          0   iusefp.o
        32          0          0          0          0         68   llshl.o
        38          0          0          0          0         68   llsshr.o
        34          0          0          0          0         68   llushr.o
        44          0          0          0          0         72   uidiv.o
        56          0          0          0          0         68   d2f.o
       356          4          0          0          0        140   dadd.o
       236          0          0          0          0        216   depilogue.o
        40          0          0          0          0         60   f2d.o
       130          0          0          0          0        144   fepilogue.o
        40          0          0          0          0         60   ffixui.o
       122          0          0          0          0         72   fmul.o

    ----------------------------------------------------------------------
      1258         20          0          0          0       1176   Library Totals
         4          0          0          0          0          0   (incl. Padding)

    ----------------------------------------------------------------------

      Code (inc. data)   RO Data    RW Data    ZI Data      Debug   Library Name

       274         16          0          0          0        416   mc_p.l
       980          4          0          0          0        760   mf_p.l

    ----------------------------------------------------------------------
      1258         20          0          0          0       1176   Library Totals

    ----------------------------------------------------------------------

==============================================================================


      Code (inc. data)   RO Data    RW Data    ZI Data      Debug   

      7926        262      18046         40       1024     135720   Grand Totals
      7926        262      18046         40       1024     135720   ELF Image Totals
      7926        262      18046         40          0          0   ROM Totals

==============================================================================

    Total RO  Size (Code + RO Data)                25972 (  25.36kB)
    Total RW  Size (RW Data + ZI Data)              1064 (   1.04kB)
    Total ROM Size (Code + RO Data + RW Data)      26012 (  25.40kB)

==============================================================================

